:1000000000000420A1240000DD240000DF24000003
:10001000E1240000E3240000E524000000000000CB
:10002000000000000000000000000000E7240000C5
:10003000E924000000000000EB240000ED24000093
:10004000EF240000EF240000EF240000EF24000064
:10005000EF240000EF240000EF240000EF24000054
:10006000EF240000EF240000EF240000EF24000044
:10007000EF240000EF240000EF240000EF24000034
:10008000EF240000EF240000EF240000EF24000024
:10009000EF240000EF240000EF240000EF24000014
:1000A000EF240000EF240000A9110000EF2400005D
:1000B000EF240000EF24000000000000000000001A
:1000C000EF240000EF240000EF240000EF240000E4
:1000D000EF240000EF240000EF240000D10C00000A
:1000E000EF240000EF240000EF24000000000000D7
:1000F00000000000EF240000000000008119000053
:1001000000000000000000000000000000000000EF
:1001100000000000000000000000000000000000DF
:1001200000000000000000000000000000000000CF
:1001300000000000000000000000000000000000BF
:1001400000000000000000000000000000000000AF
:10015000000000000000000000000000000000009F
:10016000000000000000000000000000000000008F
:10017000000000000000000000000000000000007F
:10018000000000000000000000000000000000006F
:10019000000000000000000000000000000000005F
:1001A000000000000000000000000000000000004F
:1001B000000000000000000000000000000000003F
:1001C000000000000000000000000000000000002F
:1001D000000000000000000000000000000000001F
:1001E000000000000000000000000000000000000F
:1001F00000000000000000000000000000000000FF
:10020000BFF34F8F0549064BCA6802F4E0621343FF
:10021000CB60BFF34F8F00BFFDE700BF00ED00E0F4
:100220000400FA052DE9F0414FF0102382B0D3F815
:100230000433052B40F0AB804FF080420123136064
:10024000D2F80031002BFBD06B4C6C496C4A6D4BE3
:100250006D48DFF8F8E1DFF8F8C16C4F01250026A2
:100260004FF00308C1F84055C4F804650421C4F8F0
:1002700008854FF00208C4F810152560C2F8008206
:10028000C2F84055C2F84455C2F80465C2F8085592
:10029000C2F8106515600522C0F814E5C0F810C555
:1002A000C0F80455C3F86C65C3F82475C3F80C2571
:1002B0000D22C3F81415C3F800159D60C3F81C2562
:1002C00001F05AFA01F0BCF801F07CF901F0E8FF06
:1002D00001F08AF94E49284601F004FB4D492846B1
:1002E00001F000FB4C49284601F0FCFA3046D4F8F6
:1002F000406501F063FAD4F840254849921B28462E
:1003000001F0F0FA4449284601F0ECFA444B454923
:100310000C22C3F808272846C3F8282701F0E2FA80
:100320004149284601F0DEFA01F0E2FB01F0A6FDAA
:1003300001F058FD3D490246284601F0D3FAD4F8B1
:1003400040153B4AD4F840355B1A9342FAD94FF036
:10035000805200230DF10600D2F80421ADF80630DA
:1003600001F0A0FFBDF806203249012001F0BAFAE1
:10037000BDF8063003F04603462B1FD01AF0BEFF2F
:1003800004F0A4FE02F074FF02B0BDE8F0811B4B44
:100390000122C3F80425D3F80024002AFBD04FF033
:1003A000102005240021154AC0F80443C3F80415A1
:1003B000D2F80034002BFBD0FFF722FF00F0B6FB91
:1003C00001201D4901F08EFA042000F029FF88B9B0
:1003D0001A49012001F086FA1949012001F082FA38
:1003E000054A1849D2F84005D2F840351B1A8B420D
:1003F000FAD9E1E71449ECE700A0014000E0014030
:1004000000A000400020004000F0014000E0D701C3
:10041000E0BB0100F8BB0100A473020018BC01009E
:100420000003005034BC010050BC010070BC01004E
:100430007F841E0088BC010098BC0100B0BC010094
:10044000D8BC01003F420F00C8BC010040A00140E1
:1004500040A100409A4238BF8854704770472DE948
:10046000F04F87B00746109C9DF844B0129816468E
:100470008846DDE914520CB922F0100212F48061B2
:10048000019100D014B312F0200F14BF4FF04109B6
:100490004FF06109A4460DF1080A0024A9F10A09E8
:1004A000BCFBF0FE00FB1ECE5FFA8EF1BEF1090F21
:1004B00094BF30314944C9B284450AF8011BBCFBE2
:1004C000F0F104F1010401D3102C12D112F0020A50
:1004D00023D102F0010E4DB1BEF1000F06D0BBF1E9
:1004E000000F02D112F00C0F00D0013D4FF0300C84
:1004F00007E08C46D4E7102C06D002A901F804C00E
:1005000001341399A142F6D84FF0300CBEF1000F20
:1005100003D0A54201D90F2C42D9D10620D501998B
:10052000002943D1002C41D01399A14201D0AC4203
:100530003CD1611E39D0102842D1023C910641D4F1
:100540000F2C18D806A92144782001F8100C01348A
:100550000F2C10D806A92144302001F8100C0134CA
:100560000F2C08D8BBF1000F32D006A921442D2052
:1005700001F8100C0134920749D0B146A144484615
:10058000A9EB0402002C46D1BAF1000F05D0A9EB6B
:100590000609A94506EB090045D307B0BDE8F08F71
:1005A00002A901F804C00134B0E70C461028C5D0F8
:1005B0000228CDD10F2CDED806A921446220C4E741
:1005C0000C46F5E70F2CD6D806A921445820BCE7E5
:1005D000500703D506A921442B20C9E71107CAD526
:1005E00006A921442020C3E7414620200193B847B3
:1005F000019B09F101094D450BEB0902F4D8A5EB6C
:100600000409A54238BF4FF00009B144B6E7A1463E
:10061000A6EB040BEFE7013C02A84146005D019305
:10062000B847019BABE7024641462020019309F100
:100630000109B847019BACE72DE9F04F8DB00029C7
:100640000693AF4B169E904614BF814699460025EF
:10065000069B187858B945452CBF08F1FF322A4649
:1006600043460020C84728460DB0BDE8F08F069BE2
:10067000252803F10103069306D02A466C1C434645
:100680000791C84725460FE1002206E02D2B14D024
:10069000302B0CD142F001020690069810F8013B75
:1006A0002B2B0DD0F2D8202B0DD0232B0ED0A3F165
:1006B0003004092C28D8002710E042F00202EBE7B2
:1006C00042F00402E8E742F00802E5E742F01002D7
:1006D000E2E70A2404FB0737303F0690069810F83B
:1006E000013BA3F13004092CF3D9069B1B782E2B78
:1006F0004BD1069B581C5B78A3F13004092C42F4C3
:10070000806239D8002411E02A2B08D156F8047BE6
:100710000690002FBCBF42F002027F42E5E70027AF
:10072000E3E70A2000FB0434303C604684461CF8B2
:10073000013BA3F1300EBEF1090FF2D9034613F8C5
:1007400001CBBCF16C0F29D022D8BCF1680F2ED0A0
:10075000BCF16A0F36D0034613F8010B06937828D4
:100760008BD8612831D8252887D0582885D142F0E8
:1007700020024FF0100C6FE02A2B07D156F8044BE3
:10078000069824EAE4740230D8E706980024D5E7F6
:10079000BCF17A0FDFD142F48072DDE790F801C03E
:1007A000BCF16C0FF7D142F44072831CD4E790F88F
:1007B00001C0BCF1680F02D042F08002CCE742F0E9
:1007C000C002F2E742F40072C6E7A0F16203162B02
:1007D0003FF653AF0FF2040C5CF823F03908000029
:1007E00005090000390800007B0600007B060000B8
:1007F0007B0600007B060000390800007B06000035
:100800007B0600007B0600007B0600007B060000E4
:10081000390800004D0A00007B0600007B0600003E
:10082000810900007B060000390800007B060000FB
:100830007B0600003908000078289AD06F2800F065
:100840001A81622800F01A81692822F010024FF004
:100850000A0C03D0642801D022F00C02530548BFD3
:1008600022F00102692802F4007301D0642827D124
:10087000002B7FF4EDAED30506F1040A16D53368DC
:100880000592002B4FEAD37204970394CDF808C069
:100890000192B8BF5B4200932A46434648460791FF
:1008A000FFF7DDFD564605460799D1E612F0400FE9
:1008B000336801D0DBB2E3E7160648BF1BB2DFE7BF
:1008C000002B7FF4C5AED00506F1040A07D50592CA
:1008D00004970394CDF808C001933368DBE712F066
:1008E000400F336808D0DBB20592002204970394CE
:1008F000CDF808C00192CEE7100648BF9BB2F3E7DF
:100900005D04000012F0020426D04FF0010A56F8F0
:10091000040B079143462A46C0B2C84705F1010BB4
:1009200007995CB354465A4620E00791434620207D
:10093000C84707990AEB05020AF1010A5745F4D89E
:10094000002F07F1FF3308BF002307F1010A1D4400
:1009500008BF4FF0020ADAE7A246EBE707914346E9
:100960002020551CC847079901342A46BC42F5D3BC
:10097000A7EB0A03574538BF00239B445D4667E653
:100980003346002C53F804AB079314BF23464FF0B3
:10099000FF335344D3469BF8000008B15B4511D1A7
:1009A00012F48063ABEB0A0B089302D0A34528BF77
:1009B000A34612F0020309931BD1ABEB05032A46B1
:1009C0000A9309E00BF1010BE5E70B914346202068
:1009D000561CC8470B9932460A9B1344BB42F4D3BA
:1009E000A7EB0B035F4538BF00230BF1010B1D4440
:1009F0009B445646A5EB0A0A05E01C460A9143466D
:100A00002A46C8470A990AEB060516F8010B28B1D1
:100A1000089B002BF2D0631E002CEED1099B9BB1EA
:100A20002A46ABEB050406E0089143462020561CFD
:100A3000C84708993246A318BB42F5D3A7EB0B036E
:100A40005F4538BF00231D44079E01E60823049339
:100A50001023029342F02102002305920394019394
:100A600056F8043B00932A46434648460791FFF751
:100A7000F6FC054618E74FF0080CEDE64FF0020CC7
:100A8000EAE600BF0EB40FB505AA014652F8043BD2
:100A90000392009204484FF0FF32FFF7CDFD04B0FF
:100AA0005DF804EB03B07047550400000CB41FB5AB
:100AB00006AC0A4654F8043B0094014604480394EB
:100AC000FFF7BAFD04B0BDE8104002B0704700BFA8
:100AD0005504000007B5009313460A460146034833
:100AE000FFF7AAFD03B05DF804FB00BF550400004A
:100AF0004FF08053D3F83001A0F108035842584119
:100B0000704700004FF08053D3F83021082A06D1F7
:100B1000D3F83431032B04D8034AD05C704700204B
:100B200070470120704700BFEBBC010008B5424B85
:100B30001A78002A6FD101221A704FF08042D2F841
:100B40001C31002BFBD0FFF7DDFF68B13B4BD3F826
:100B5000001C0322002960D149F27531C3F8001C42
:100B6000C3F8142DC3F8001CFFF7C2FF68B1334B64
:100B7000D3F8001CC022002952D149F27531C3F8C4
:100B8000001CC3F8142CC3F8001C2D4B0122C3F821
:100B90000025BFF36F8FBFF34F8FD3F800241205EA
:100BA000FBD54FF40062C3F80024BFF36F8FBFF38F
:100BB0004F8FFFF79DFF58B1204BD3F8001C91BB1E
:100BC00049F27532C3F8002CC3F8141CC3F8002C8A
:100BD000FFF798FF58B1194BD3F8001C39BB49F205
:100BE0007532C3F8002CC3F8141DC3F8002C4FF065
:100BF0008042D2F82431002BFBD0114B0122C3F8E4
:100C0000042502F50002C3F804230E4B402283F8AA
:100C1000272380225A60012008BDC3F8142DA3E7C2
:100C2000C3F8142CB1E70022C3F8142CD0E700223B
:100C3000C3F8142DDBE700BF90A4032000E00640BA
:100C40000070024000E100E0014B1878704700BFDF
:100C500091A403201D4A08B5C2F80006C2F8041684
:100C6000FFF746FF10B18223C2F81C3C01235360FA
:100C7000BFF36F8FBFF34F8FD2F80431002BFBD03F
:100C80000023C2F80431D2F86834DB0744BF0123E3
:100C9000C2F868340D4AD2F80831002BFBD000238B
:100CA000C2F80831D2F82831002BFBD00021C2F85D
:100CB0002811FFF71DFF08B1C2F81C1C034B0122CD
:100CC0001A65BFF36F8FBFF34F8F08BD00700240EE
:100CD00070B594B05D4B00228DF80C20D3F8001154
:100CE00009B1C3F80021D3F85C212AB3D3F88424D6
:100CF0008DF80520D3F880248DF80420D3F89414BF
:100D0000D3F8902442EA0122ADF80820D3F89C14CD
:100D1000D3F8982442EA0122ADF80A20D3F88C14C3
:100D2000D3F8882442EA0122ADF8062001228DF88A
:100D30000C200022C3F85C21444C9DF80C30D4F800
:100D40006051EDB28DF80D50F3B19DF904309DF86E
:100D50000410002B66DA11F07F0115D19DF80530E3
:100D6000062B11D1BDF80640230A022B19D0032B04
:100D700027D0012B08D13649122204A81AF082FE8E
:100D8000122104A8FFF766FF324B01A81B689847A1
:100D90002DB12E4BD3F86C240AB9C3F8602114B0DE
:100DA00070BDBDF80A402C493B2C4FF03C0204A812
:100DB00003D81AF067FE2146E3E71AF063FE3C21F0
:100DC000DFE714F0FF0404AE0CD1BDF80A4023495C
:100DD000042C28BF0424042230461AF053FE214676
:100DE0003046CFE73C2205A804911AF074FE00F0CB
:100DF000EFF9013C844202D300F0EAF9441E184B9B
:100E000053F8243003228DF81120013B022113F8FE
:100E1000012F0AB1402902D18DF81010E0E7725479
:100E20000231F4E711F0600FAED1CB06ACD19DF8E2
:100E30000530092BA8D100F0CDF901232365BFF3BC
:100E40006F8FBFF34F8F074A13709DE7007002400A
:100E500078BD010070BD010033BD01008ABD0100F5
:100E60009000002091A403204FF08053D3F830016C
:100E7000A0F10803584258417047000008B5FFF739
:100E8000F3FF18B1114B8222C3F81C2C104B0F4AF0
:100E9000012083F88B0093F88C10C9B2C2F81816A1
:100EA000C2F814369060BFF36F8FBFF34F8F0021ED
:100EB00083F88C10FFF7D8FF30B1D2F80C311BB992
:100EC000D2F80031002BF8D008BD00BF00700240FE
:100ED0000000002008B5FFF7C7FF114B10B18222B8
:100EE000C3F81C2CD3F8A4140E4AC9B282F8891096
:100EF00040210A44C3F81817C3F814270122DA6204
:100F0000BFF36F8FBFF34F8FFFF7AEFF38B1044BC6
:100F1000D3F834211AB9D3F80021002AF8D008BD3B
:100F2000007002400000002013B5037A0446BBB1F4
:100F30000378A12B0BD14378212B11D141490722F2
:100F400068461AF09FFD07216846FFF783FE237865
:100F5000212B05D162783C4B202A48D0222A66D02A
:100F6000394BD3F834318BB1384B93F8892012B117
:100F7000012283F88720002283F88A20FFF774FF7C
:100F8000314B08B1C3F81C2CC3F834212E4AD2F8D7
:100F90000C313BB1FFF768FF002308B1C2F81C3CDD
:100FA000C2F80C31637A03B3274BD3F86C3499033E
:100FB0000FD5264B93F88720002A3FD193F888203D
:100FC000002A3BD1FFF786FF1F4B4FF40032C3F8D6
:100FD0006C241D4BD3F86C24920706D50222C3F86B
:100FE0006C241A4B002283F88B2002B010BD07221C
:100FF000C3F80427134AC3F800270122DA64BFF3B9
:101000006F8FBFF34F8FD3F82821002AFBD0002227
:10101000C3F8282101229A62BFF36F8FBFF34F8F6D
:10102000D3F83021002AFBD00022C3F8302101225E
:101030001A65BFF36F8FBFF34F8F91E7012283F8DB
:101040008820C1E7800000200070024000000020DE
:1010500010B5134C134BC4F80433FFF73BFFD4F81F
:10106000103543F00203C4F81035D4F8143543F0BA
:101070000203C4F814350C4B00224FF40031C4F8BD
:10108000A424C3F80813C3F84421084B4FF080622E
:101090004021C3F8802183F81A131A6010BD00BFE5
:1010A000007002400820000100A0014000E100E0C3
:1010B000184B802210B5C3F88420BFF34F8FBFF3C5
:1010C0006F8F154B93F8872002B393F88A201A4448
:1010D00092F8404093F88A200132D2B2E4B283F809
:1010E0008A2093F88A1093F88920914209D300222C
:1010F00083F8872093F8881019B183F88820FFF7C8
:10110000E9FE044B80225A60204610BD4FF0FF34A8
:10111000E7E700BF00E100E000000020F8B504466A
:10112000FFF792FD012835D11C4B93F88B2002F07C
:10113000FF07002AF9D11A4D8026C5F88460BFF355
:101140004F8FBFF36F8F93F88C20D2B24FF40030E3
:101150009C5493F88C200132D2B283F88C20114A2F
:10116000C2F80803D2F8401501F57A71C2F84415A7
:101170004FF08061C2F84471C5F8801193F88C304B
:101180003F2B04D9FFF77AFE6E602046F8BDC2F807
:101190000403F9E74FF0FF30F8E700BF000000203C
:1011A00000E100E000A00140074B0022C3F8442109
:1011B0004FF40032C3F80823044B4FF08062C3F8A9
:1011C0008021FFF75BBE00BF00A0014000E100E00E
:1011D00006207047FFF73CBF70B5084DD5F8406555
:1011E00004464FF0FF30D5F840359B1BA34201D297
:1011F000431C00D070BDFFF75BFFF4E700A0014087
:1012000038B5036811448B42054607D20C0C240400
:10121000204604F5803400F005FE2C6038BD000047
:101220002DE9F04F784B012287B080461A60D3F841
:101230000021002AFBD00026C3F8006101251023FD
:10124000DFF8D891059600936FF07F444FF0430A82
:10125000374601954FF0100BBAF1000F02D05046FF
:10126000FFF75CFF6948FFF7B7FF00280FDB042892
:1012700017D010DC01285DD0022800F0C18048465C
:10128000FFF7AAFF0028FADA1520FFF747FFBBF1A6
:10129000010BE1D1DEE7172803D01828EFD1012098
:1012A0000CE00620FFF73AFF0620FFF737FF062085
:1012B000FFF734FF0620FFF731FF002007B0BDE83D
:1012C000F08F57EA02030CD04846FFF785FF00284D
:1012D000FADA1520FFF722FF4FF0000A7FE0002D19
:1012E0004CD14B4B1A4613F8011B0029FAD102F1DD
:1012F0000A00194601330C78202C01D09842F8D10D
:1013000000240C700A2312F8015F45B941492246B6
:10131000012000F0E7FA4FF0050A43272EE003FB17
:101320000454303CEFE742F21070FFF755FF0130F4
:10133000F9D14BE04FF0850ADFF8E4B001238BF8D8
:1013400001000BF10202484603930292FFF744FFAB
:101350000028B9DB039B029A0133534502F8010BC5
:10136000F1D19BF803309BF80220DB43DBB29A42B9
:10137000AAD1AA42A5D1002FB1D00027A31BAAF160
:10138000050A9A45A8BF9A46AB0608D16423734361
:10139000214993FBF4F33246012000F0A3FABAF19D
:1013A000000F0EDD4146524605A8FFF729FF0AF15E
:1013B00003024046164922F0030200F019FDD04412
:1013C0005644019B0135EDB2002BACD10620FFF74E
:1013D000A5FE112300930023BA4601930127009B29
:1013E000013B002B00933FF735AF1820FFF796FE27
:1013F0001820FFF793FE1820FFF790FE03205DE70B
:1014000040F2054A98E700BF00900240C0C62D0098
:10141000D4E801208EBD01009FBD010040420F00B5
:10142000D0E80120054A4FF47A73D2F840155843AA
:10143000D2F840355B1A8342FAD3704700A00140CE
:101440000E4B4FF00042C3F810250E22C3F80825BA
:101450000F22C3F80C254FF0A052C3F82425062212
:10146000C3F8542501210022C3F86425C3F85015A0
:10147000C3F840250722C3F80025704700F002405A
:101480000B4B82B00DF107028DF80700C3F844251D
:101490000022C3F838250122C3F848251A61D3F881
:1014A0001821002AFBD00022C3F8182102B070478F
:1014B00000F0024070B54FF0A0444FF400534FF4D9
:1014C0008056C4F80C350546C4F80C6500BF0120F1
:1014D000FFF7A8FF2846FFF7D3FFC4F80C6570BDDF
:1014E00070B54FF0A0444FF400534FF48056C4F849
:1014F00008350546C4F80C650120FFF793FF284620
:10150000FFF7BEFFC4F80C6570BD2DE9F843044633
:1015100014F8015B0DB9BDE8F883264616F8020BF6
:10152000FFF7C8FF94F8018008F07F073C46B146FA
:10153000013CE4B2FF2C0FD118F0800F06EB07043A
:1015400007D0F05DFF2808BF4FF4FA700134FFF7B1
:1015500069FF013DEDB2DDE719F8010BFFF7C0FFB0
:10156000E6E7000038B54FF0A043154C40F20132D9
:10157000C3F83C27C3F83827C3F83427C3F830270B
:10158000C4F80C27C4F814274FF48052C3F80C2574
:1015900008254FF40052C3F808253220C4F8085536
:1015A000FFF740FF3220C4F80C55FFF73BFFC4F8AB
:1015B00008553220FFF736FF2023C4F8083538BD20
:1015C0000003005000B59BB00649672268461AF038
:1015D00059FAFFF7C7FF6846FFF797FF1BB05DF8A2
:1015E00004FB00BFADBD010010B50F48FFF78DFF34
:1015F0004FF0A0440A20FFF715FF4FF40053C4F842
:1016000008350A20FFF70EFF4FF48053C4F80C355D
:101610000A20FFF707FF00BF044B202283F82F2387
:101620004FF400425A6010BD14BE010000E100E01A
:10163000044B202210B1C3F808257047C3F80C25CD
:10164000704700BF000300500000000000000000D1
:10165000F0B5474D05F5E036002196F80436D6F88A
:1016600008262F6805EB43230433102408468C46D4
:101670008E4600BFAFF30080AFF30080AFF3008071
:101680001178507892F802C092F803E037F8111000
:1016900037F8100037F81CC037F81EE041EA004167
:1016A000C3F800104CEA0E4CC3F804C0117950790D
:1016B00092F806C092F807E037F8111037F81000DA
:1016C00037F81CC037F81EE041EA0041C3F80810A3
:1016D0004CEA0E4CC3F80CC0117A507A92F80AC04A
:1016E00092F80BE037F8111037F8100037F81CC0EB
:1016F00037F81EE041EA0041C3F810104CEA0E4CE6
:10170000C3F814C0117B507B92F80EC092F80FE022
:1017100037F8111037F8100037F81CC037F81EE002
:1017200041EA0041C3F818104CEA0E4CC3F81CC043
:1017300003F1200302F11002013CA1D196F80C360E
:101740000C49C6F808260133DBB286F80C3696F849
:10175000043605EB4325C3F1010386F8043604354E
:101760004FF40073C1F84835C1F84455F0BD00BFCF
:10177000C022002000F0024008B50B4B0B4A18466F
:1017800000211AF0A8F90A4A026000F5E0330822A5
:1017900083F80E26E22283F80C26064B01221A70EB
:1017A000054B00221A7008BDC022002010C601009F
:1017B00024C20100A800002093A4032038B5134BD5
:1017C00003F5E03292F80F1601F0FF040029F9D179
:1017D0004FF4614101FB003303F20443012582F819
:1017E0000F56C2F8083682F80C46FFF731FF084B57
:1017F0004FF40032C3F84C41C3F81841C3F800223B
:101800004FF40022C3F804231D6138BDC02200201C
:1018100000F00240EF2830B514D8EF2912D80A4B57
:1018200003F5E03494F80E56082D0BD1F02594F80A
:101830000D4669434FF4614505FB04110B4419182B
:1018400081F8042430BD00BFC02200202DE9F74FED
:10185000134DDFF850A0DFF850B000F07F000F46C6
:10186000904605EBC005002415F8019B002608EB07
:10187000040119F0010F14BF9BF800209AF8002012
:101880000191B8190136FFF7C5FF082E01994FEAFB
:101890005909EED10134082CE6D103B0BDE8F08F30
:1018A00023BE010093A40320A8000020F0B589B056
:1018B00004460E4668461F21FFF70CF96D4604F1F9
:1018C000F807EF2C0BDC15F8010B43B2002B06DDFB
:1018D000214632460834FFF7B9FFBC42F1D109B0C6
:1018E000F0BD00000EB433B51F4A13781D2B05461A
:1018F00013D8D9000133137006AB059A0193002069
:10190000FFF7D4FF25B1194B93F80D06FFF756FFEB
:1019100002B0BDE8304003B07047154800F5E03331
:101920004FF4614193F80D264A4302F20443034405
:1019300002F684314DF680140144224618461AF00E
:10194000A1F80C49034602190878010441EA002174
:10195000014341EA006103F5614342F8041B9A42E6
:10196000FBD1E821C8E700BF92A40320C0E2012018
:10197000C022002093A4032000000000000000000B
:10198000584BD3F8182172B100225749C3F81821D7
:1019900091F80C06E12881BF4020C3F84C21C3F820
:1019A000080381F80F264F4BD3F84C21C2B12DE923
:1019B000F0434E49002001F5E032C3F84C0192F8A3
:1019C0000C46E02C0DD992F80C160131C9B282F800
:1019D0000C164024C3F80002C3F80443BDE8F083AA
:1019E000704792F804860E6801EB48270020043700
:1019F000D2F808161025844686460446B94600BF2C
:101A0000087891F801C091F802E0CC7836F810001F
:101A100036F81CC036F81EE036F8144040EA0C4098
:101A2000C9F800004EEA044EC9F804E0087991F8BC
:101A300005C091F806E0CC7936F8100036F81CC0E5
:101A400036F81EE036F8144040EA0C40C9F80800A9
:101A50004EEA044EC9F80CE0087A91F809C091F8F2
:101A60000AE0CC7A36F8100036F81CC036F81EE0D2
:101A700036F8144040EA0C40C9F810004EEA044E13
:101A8000C9F814E0087B91F80DC091F80EE0CC7B0A
:101A900036F8100036F81CC036F81EE036F8144050
:101AA00040EA0C40C9F818004EEA044EC9F81CE0A0
:101AB00009F1200901F11001013DA1D1C2F8081678
:101AC00092F80C160131C8F10108C9B282F80486F7
:101AD00082F80C164FF40072C3F84825C3F8447519
:101AE000BDE8F08300F00240C0E20120C0220020E7
:101AF0002B482C4BDFF8C0C02DE9F04340F20135F4
:101B00004FF00309C3F800570122C0F80895264B8F
:101B1000264CDFF8A880DFF8A8E0254E0021022738
:101B20004FF40069C0F80072C0F81015C0F8042521
:101B3000C0F8449502602020C4F81089C4F818E564
:101B4000C4F81CC5C4F80475C3F860054FF4B5703B
:101B5000C3F800254FF48065C3F80425C3F80C15BD
:101B6000C3F808050420C3F81425C3F81015C3F8FA
:101B70002065C3F82455C3F82825C3F82C15C3F8ED
:101B80004065C3F84455C3F84825C3F84C15C3F85D
:101B900000029A600748BDE8F043302219F09BBF6D
:101BA000009000400003005000C0014000F00140E0
:101BB00094A4032094AC032008900040409000407F
:101BC00018C10140094B4FF0B51103F5006243F80D
:101BD000041B9342FBD1064B00229A805A811A8241
:101BE000DA829A835A841A85DA85704794A403208E
:101BF00094AC03204C4BD3F840252DE9F04F52080C
:101C000002F16406013AC6F30906C2F309029642DC
:101C1000ADF5697D09D045483346B524591C20F8F7
:101C20001340C1F309039342F8D1414CDFF8088116
:101C30003E4F04F1300594F90530002B66D023792E
:101C4000002B63D0D8F80020D26A52F82390B9F163
:101C5000FF3F5BD0484618F045FC00F09053B3F1CD
:101C6000905F824652D1484618F0FAFB23884FF61F
:101C7000FF729342014605D06288F31AC3F3090349
:101C80001344638063882680C91A002945DDB1F5B5
:101C9000677FA8BF4FF46771264AC81C534420F0E1
:101CA0000300C2F80C05C2F8043501A80023C2F8ED
:101CB0000805C2F8003101235360D2F80031002B2F
:101CC000FBD03144C1F3090100238E42C2F8003138
:101CD0001CD094F905E032464FF0B50943F6FF7A7F
:101CE00010F8013B37F812B0803B03FB0EF309FB01
:101CF00003F3002BB8BF534402F1010C0BEBA333E9
:101D000027F81230CCF309028A42E9D10634A54201
:101D100091D10DF5697DBDE8F08F002323716371CA
:101D20000634A54287D1F4E70090004094A4032034
:101D300094AC03200090024004F703200E4B84B0C3
:101D40000DF10F028DF80700C3F834250DF10702DD
:101D5000C3F844250122C3F83825C3F848251A6181
:101D6000D3F81821002AFBD00022C3F818219DF8CF
:101D70000F0004B0704700BF003000404FF0A04398
:101D800007B54FF48012C3F80C250520FFF7D6FFE6
:101D90008DF80700FF20FFF7D1FF8DF807009DF8B1
:101DA0000730DB07F6D44FF0A0434FF48012C3F89E
:101DB000082503B05DF804FB094B002243F205201F
:101DC000C3F83826C3F83406D3F800110029FBD035
:101DD000C3F80021D3F83816C907F1D4704700BF03
:101DE00000900240014B1868704700BFC4AC03204C
:101DF0000B4B10B40024C3F80041C3F8182501228E
:101E0000C3F81415C3F810059A60D3F80021002A0E
:101E1000FBD000225DF8044BC3F80021FFF7CCBFD4
:101E200000900240094B0022C3F800210122C3F8B0
:101E30002025C3F81C05DA60D3F80021002AFBD066
:101E40000022C3F80021FFF7B7BF00BF0090024097
:101E5000094B0022C3F80021C3F820250122C3F852
:101E60001C05DA60D3F80021002AFBD00022C3F859
:101E70000021FFF7A1BF00BF00900240F0B5644C05
:101E800064491323C4F808351623C4F81035112308
:101E9000C4F80C354FF00043C4F824350127002363
:101EA000C4F840754FF0A045C4F850350723C4F876
:101EB000003540F20133C5F85037C5F84C374FF4C0
:101EC0004373C5F85437C5F85C37C5F84437C5F8CF
:101ED00058374FF4000387B0C5F8083506264FF48D
:101EE0000013C5F808353246684619F0CBFD4FF4AB
:101EF0008013C5F80C3502ABC4F83435C4F844D5AA
:101F0000C4F83865C4F848652761D4F81831002B47
:101F1000FBD04FF0A0414FF480150026C4F81861A3
:101F2000C1F808559DF80D30C1F80855A3F1150208
:101F30004FF480039340384A50201360C1F80C5589
:101F4000FFF7FCFEC1F808553120C1F80C55FFF72A
:101F5000F5FE0220FFF7F2FEC1F80855FFF70EFF6D
:101F6000C1F80C553520FFF7E9FE3046FFF7E6FED5
:101F7000C1F808555020C1F80C55FFF7DFFEC1F835
:101F800008551120C1F80C55FFF7D8FE3046FFF771
:101F9000D5FEC1F80855FFF7F1FE012363611C4B24
:101FA000D3F80421002AFBD00022C3F80421C3F88F
:101FB00000251A4B14211320C3F82815C3F8240553
:101FC0001120C3F830051620C3F834051720C3F8D4
:101FD00038051520C3F83C054FF09050C3F8400574
:101FE000C3F844154FF48071C3F80026C3F84016B7
:101FF0000121C3F80015C3F800211960D3F80021AE
:10200000002AFBD00022C3F8002107B0F0BD00BFBA
:10201000003000402CC20100C4AC032000900240FC
:1020200070B54FF0402500244FF40076C5F8044108
:10203000C5F800620F4D28706970A81C21468B42BC
:1020400013DC4FF040220233C2F84455C2F8483541
:102050000023C2F8383501239360D2F80431002BF5
:10206000FBD00023C2F8043170BD545C00F8014B72
:102070000131E4E7CCAC032010B50A4C61704FF09D
:10208000402120700220C1F84805C1F838354FF4CE
:102090008453C1F84445C1F83425C1F80032012306
:1020A0008B6010BDCCAC032070B5354B354ED3F8EA
:1020B000403532689B1AFA2B044619D9324D2B78D9
:1020C000012B55D0022B58D02BB904232F4A194687
:1020D0000120FFF7D1FF2A4BD3F8403533602B782E
:1020E00003220133B3FBF2F202EB42029B1A2B7084
:1020F000264A2749537813F0010F0CBF4FF4807321
:1021000000232380D278D24302F067021343238056
:1021100008784A7842EA0022B2F5806F0FD840F280
:1021200032218A428CBF08210021B2F5E77F43EAC1
:10213000010334BF4FF40072002213432380154A79
:102140001178537843EA0123B3F5806F0FD8B3F5C4
:10215000E77FB4F9002034BF802100210A4340F218
:1021600032218B428CBF102300231343238070BD88
:10217000074A022315210920ABE7064A1621FAE790
:1021800000A00140D4AC0320D8AC0320C8AC03208D
:10219000D9AC0320DBAC03204FF0A0434FF4C06266
:1021A00010B5C3F86427C3F860274FF04023192205
:1021B000C3F808251822C3F80C255022C3F8882537
:1021C0004FF08062C3F8242501200622C3F8500591
:1021D0000321C3F84005C3F80025294A294C0423EC
:1021E000FFF71EFF264A04230B210120FFF718FFEB
:1021F000234A042305210120FFF712FF204A04236C
:1022000008210120FFF70CFFD4F840351E4A136067
:1022100001330322B3FBF2F202EB42029B1A1B4A88
:10222000137004231A4A19460120FFF725FFD4F83A
:10223000401541F28732D4F840355B1A9342FAD9FF
:10224000144A152102230920FFF716FFD4F8401580
:102250000C4C41F28732D4F840355B1A9342FAD9DC
:102260000D4A162102230920FFF706FFD4F8401576
:102270000A4AD4F840355B1A9342FAD910BD00BF20
:1022800032C2010000A00140D4AC0320D8AC03202E
:10229000C8AC0320D9AC0320DBAC03201FA107008E
:1022A000FFF77ABFFFF700BF4FF08053D3F830013C
:1022B000A0F1080358425841704700004FF0805386
:1022C000D3F83021082A06D1D3F83431032B02D8B1
:1022D000024AD05C70470020704700BF36C2010040
:1022E00008B5FFF7E1FF40B14FF080430022C3F88B
:1022F0000C21C3F81021C3F83825FFF7D5FF0028BB
:1023000046D04FF080525C4BD2F80414C3F820152D
:10231000D2F80814C3F82415D2F80C14C3F8281501
:10232000D2F81014C3F82C15D2F81414C3F83015D1
:10233000D2F81814C3F83415D2F81C14C3F8401599
:10234000D2F82014C3F84415D2F82414C3F8481561
:10235000D2F82814C3F84C15D2F82C14C3F8501531
:10236000D2F83014C3F85415D2F83414C3F86015F9
:10237000D2F83814C3F86415D2F83C14C3F86815C1
:10238000D2F84014C3F86C15D2F84424C3F8702571
:10239000FFF794FF18B1394B394AC3F88C26FFF781
:1023A0008DFF18B1374BFB22C3F81825FFF786FFC6
:1023B00070B14FF080414FF08053D1F8E42ED3F844
:1023C000583222F00F0203F00F031343C1F8E43E2A
:1023D000FFF774FF20B12C4B4FF40072C3F8402676
:1023E000FFF762FF48B14FF08043D3F80024D207D3
:1023F00044BF6FF00102C3F80024244AD2F88830A9
:1024000043F47003C2F88830BFF34F8FBFF36F8F70
:102410004FF01023D3F80C32DB0728D51C4B0122D8
:10242000C3F80425D3F80024002AFBD04FF0102273
:10243000D2F80C3223F00103C2F80C32144BD3F85B
:102440000024002AFBD00022C3F80425D3F800247E
:10245000002AFBD0BFF34F8F0C490E4BCA6802F421
:10246000E0621343CB60BFF34F8F00BFFDE70A4B21
:102470000A4A1A6008BD00BF00C00040005000407A
:102480004881030000F000400090024000ED00E0B1
:1024900000E001400400FA05AC0000200090D003E9
:1024A0000A490B4A0B4B9B1A03DD043BC858D0501A
:1024B000FBDC0849084A0020521A02DD043A885021
:1024C000FCDCFFF70DFFFDF7ADFE00002CE503007F
:1024D0000000002090A4032034F70320FEE7FEE76D
:1024E000FEE7FEE7FEE7FEE7FEE7FEE7FEE7FEE7C4
:1024F000104A38B513680133136080EAE07281EA4C
:10250000E173A2EBE072A3EBE173B3EB923F0446FD
:1025100005D841406FF0004080EAE17038BDC51732
:102520002D040A46CB17000445EA144119F0EDF9D1
:10253000F4E700BFE0AC03201F4B1B68D3E9021295
:1025400051EA020070B506D0187920F00800187121
:102550006FF00040186418691D6A1C6B01445869CB
:102560001961024405EBD57001EB6001A1425A618B
:102570004FEA600614DDA41B1C615C6A586B04EB17
:10258000D47102EB610282424FEA61060EDD801BCC
:1025900058611A692A449A615A692244DA6170BD05
:1025A000986A8142BCBF801B1861E6E7D96A8A42FB
:1025B000BCBF891B5961ECE7ECAC0320164BF7B5A7
:1025C0001C68226A636A27696669E16C019102EB03
:1025D000D27203EBD3734FF4700007EB620706EB84
:1025E000630612F0C5F90199206205464FF45000C8
:1025F00012F0BEF905EBD57200EBD073A7EB6202C7
:10260000A6EB630360621544184422616361A5610F
:10261000E06103B0F0BD00BFECAC03202DE9F74F43
:102620000F4601680C9DA1EB23194FEA231A144BA6
:10263000D40C1B6853F824B006465946484612F09D
:1026400097F93A6801902D11A2EB05080D4A404612
:1026500052F82410009112F08BF9019B00991C1A7A
:10266000484612F085F959460544404612F080F973
:10267000544405443D60346003B0BDE8F08F00BFB2
:1026800038A502003CA502008A4B2DE9F04F1B68DB
:102690004768DA69F7298A4608BF4FF0000A97426F
:1026A00089B078DC5C69A742B4BF04240024D0F868
:1026B0000CB05A4571DB59698B45B4BF0421002128
:1026C0000C4240F0C980D0F800C0D3F81090CC453F
:1026D00065DA44F001048268914566DD41F001014C
:1026E0000C40039240F0B880ACEB0900996C029367
:1026F000019112F03DF9029B01995B6902934FEA47
:102700002048F81ACDF8108012F032F9039A019996
:102710000014C0F1D007A2EB0900059712F028F9C8
:10272000029B01994FEA2049ABEB0300CDF81890CA
:1027300012F01EF90014C0F1D002002F07923ADB0C
:10274000CF2FCCBF04230023B8F1000F35DA43F0BC
:102750000103002A37DBD02AA8BF0424B9F1000FF7
:1027600033DA44F0010413EA040075D1844653EAD5
:10277000040130D1BCF1000F00D0059708B1CDE9BC
:102780000692BCF1000F01D0CDF81080514604A88C
:1027900017F084FA60E0082489E7082190E79A6935
:1027A0009445C8BF44F0020495E798698242C8BFC7
:1027B00041F0020194E70823C6E7B8F1EF0FC8BF64
:1027C00043F00203C5E70824C8E7B9F1EF0FC8BF1B
:1027D00044F00204C7E7002B14BF1946214611F04C
:1027E000080F0CD0A9EB0805BE1A7D4395FBF6F542
:1027F000002645448B4241D03246A94649E011F0BB
:10280000040F0AD0A7F1D006A9EB08057543BE1A3C
:1028100095FBF6F5CF264544ECE711F0020E1ED0ED
:10282000C8F1EF05D61B6E43A9EB080596FBF5F63C
:10283000EF253E448B4228D1002E1DDBD02EB4BFA5
:1028400000230423002D1BDA43F00103A84637467A
:102850004FF0010C23428AD009B0BDE8F08F11F08F
:10286000010FE7D0BE1AA9EB080506FB08F696FB98
:10287000F5F675463E44DDE70823E3E70023E1E78C
:10288000EF2DE3DD43F00203E0E7002E3246A946D8
:1028900009DBD02EB4BF00240424002D05DA44F057
:1028A00001040120D6E70824F7E7EF2DF9DD44F015
:1028B0000204F6E7ECAC032010B5064C064823688A
:1028C00000221A7116F08CFA2368012283F8522034
:1028D00010BD00BFECAC0320DCC201002DE9F341C8
:1028E000514C236893F852300BB9FFF7E5FF246889
:1028F000002394F8BA8184F8523094F8503094F858
:10290000B971434503D194F85130BB4243D06FF0C5
:102910000043C4E90A33B4F994630233C4E90C33C5
:102920000023B342A26A216BE56A64DB636B121178
:102930001B1109112D11A26263632163E562891ADB
:102940004FF470005D1BFFF7D3FD294606464FF498
:102950005000FFF7CDFD354A1368864203F10103AD
:10296000A8BF064613604FF4D003E3634BF2333144
:10297000A6633046FFF7BCFDB0F5D00FD4BF0146CB
:102980003146A1644FF48030FFF7B2FD84F85080E7
:10299000E06484F851702379E16C019143F0010304
:1029A00023716FF0004323640023C4E902334FF422
:1029B000700011F0DDFF0199206205464FF45000D0
:1029C00011F0D6FFD4F8E83060621A6A5B6A05EB52
:1029D000D57500EBD0706D104010C0EB2310C5EB27
:1029E000221560612561FFF7A7FD114802B0BDE81F
:1029F000F04116F0F5B9D4F8840300EBC30C50F89D
:102A00003300904207DAA062DCF80420AA4206DA1A
:102A1000E262013385E78842C8BF2063F4E7616B57
:102A20008A42C8BF6263F4E7ECAC0320E0AC032049
:102A3000CCC2010010B5584B1C68237913F001017A
:102A4000024600780BD1002840F0A380534B526817
:102A50001B689A4202D1FFF741FF012010BD0028F8
:102A60006ED14F4952680968914208D11907F5D4CF
:102A7000E16C4FF4802011F07BFFA060EDE7494945
:102A80000968914208D11A07E8D4E16C4FF480201C
:102A900011F06EFF4042F0E743490968914208D1C6
:102AA0001B07DBD4E16C4FF4802011F061FFE06084
:102AB000D3E73E490968914208D11907CED4E16CA9
:102AC0004FF4802011F054FF4042F0E73349096889
:102AD000914208D19A0702D5FFF7EEFEBDE743F019
:102AE0000E002071B9E732490968914214D1314989
:102AF0000968214491F8BC1171B183F008002E4A95
:102B000020716FF0004310F0080F23642B4B08BFB7
:102B10001346C4F86031A0E7294B1B68934206D1E5
:102B20004FF6FA23636503F62423A36595E7254B47
:102B30001B6893422DD1244B63654FF6FA23F4E7CB
:102B4000012826D1164952680968914204D113F030
:102B500008001ED1A06081E7124909689142F6D0B1
:102B600011490968914204D113F0080011D1E060C5
:102B700074E70E4909689142F6D0114B1B689342E5
:102B800003D0104B1B68934203D14FF4803363652D
:102B9000A365002062E700BFECAC0320B8E00100B1
:102BA000C8E00100C4E00100CCE00100BCE001008D
:102BB000C0E00100F0E0010049C201003AC201009A
:102BC000D4E00100D0E001001E0501002DE9F74F1F
:102BD000354E34682379DA0762D51B0737D5D4F828
:102BE000E830D3F820805F6A236C434502D1636CE0
:102BF0009F422CD0A36C019319464FEA281011F084
:102C0000B7FEDFF8A8A0D4F84CB000EA0A00594695
:102C100011F0AEFE256A019B05EBD572A0EB6209AF
:102C20001946C4F81090381111F0A2FE594600EA76
:102C30000A0011F09DFE636A03EBD372A0EB620001
:102C4000C4E910874D4403446061A561E361A36D4D
:102C5000B3F5803F1AD0616DA06C11F089FE01467A
:102C60000546A0644FF48030FFF742FCA16BE0649E
:102C70008D4206DAA1644FF48030FFF739FCE0643E
:102C800002E0E16B8D42F5DCFFF798FC33689A684F
:102C90000AB9DB6823B103B0BDE8F04FFFF74CBCC5
:102CA00003B0BDE8F08F00BFECAC03200000FFFFD5
:102CB0002DE9F04FA44E33681979CC0787B040F165
:102CC0008A8011F0020106D1F7230093F022D0236D
:102CD000084616F0ABFF31680B79D80632D50A6981
:102CE000D1F8CC33D31AC3F31204002C76D05B4254
:102CF000C3F3120358BF5C42C4F5002414440D6AA8
:102D00004B6A15444A69039213440593A54267DC54
:102D100031684A69D1F8D033D31AC3F31204002CB6
:102D200067D05B42C3F3120358BF5C42C4F5002472
:102D300014444D6A0B6A15440A69029213440493C1
:102D4000A54258DC00274FF6FF7B3368B3F99E237A
:102D5000974259DBD3F8E8201B79176A566A7B4CF7
:102D6000D56B13F0040F4FEA27174FEA261618BF4A
:102D70004FF0804504F170094FF00008236802937A
:102D8000636803933DB1CDF8008000232A4603A970
:102D900002A8FFF743FC029B3B440293039B33448E
:102DA0000393A3680493E36805933DB1CDF80080D5
:102DB00000232A4605A904A8FFF730FC049B3B44E6
:102DC0000493059BD021334402A810340593FFF7E8
:102DD0005BFCA145D2D107B0BDE8F08F14468EE769
:102DE000682102A802940494FFF74EFC04F5002425
:102DF0008CE714469DE7682102A803940594FFF729
:102E000043FC04F500249BE73822D3F8A013D3F841
:102E10008C9302FB07FA01EB0A0251F80A10D08BDF
:102E200009110291516809110391916809110491E6
:102E3000D16858454FEA21110591D3F8A81363D002
:102E40000C2404FB0010857AC07A45EA002528B2DC
:102E50002C2500FB0595908B0C2404FB001191F8A8
:102E60000A80C97A48EA01281169D3F8A42302EB41
:102E700081020FFA88F89478D27802F00F0244EABF
:102E800002241A79520718D5D3F8E830DA6B596A58
:102E900000911B6AC2F1804203A902A8FFF7BEFBA2
:102EA0003368D3F8E830DA6B596A00911B6AC2F1D3
:102EB000804205A904A8FFF7B1FB3368D3F8A42327
:102EC00002EB8702D278C2F30212500764D5D3F81E
:102ED000A0339A44BAF83030190674D42C2218FB67
:102EE00002F89A0609EB080A62D4222C0ED8192C93
:102EF00014D9A4F11A03082B10D8DFE803F06623D5
:102F0000680F0F0F666823000025A4E7872C13D8ED
:102F1000852C5CD8632C58D0852C56D0002D49D0F8
:102F2000272C07D0612C05D004F68374C4F30B045E
:102F3000012C0FD8772143E004F67873C3F30B0319
:102F4000012BEBD8E7213BE0ECAC03205CC2010095
:102F5000172135E0D5E900239A4205D059F8082019
:102F6000DAF804309A4201D1D02129E050460CF021
:102F70003BFF20BB28460CF037FF00BB2A6859F8FE
:102F800008309A4201D037211AE06A68DAF8043032
:102F90009A4218D0D72113E0B3F91E219AB1D3F881
:102FA000A0339A44BAF830301B060CD4682107E0ED
:102FB000002DCDD150460CF017FF0028C8D0FC21C1
:102FC00002A8FFF761FB0137BFE6CC21F8E7AF218C
:102FD000F6E700BF024B1B68012283F8D921704736
:102FE000ECAC032038B50E4D02F0ACFA2B689C6EA9
:102FF0009866041B04B938BD02F0D6FA2868436EFF
:10300000D0F8A4219B1A032B04F1FF34F3DC5C30CD
:1030100001F07AF92A68536E01335366EAE700BF7C
:10302000ECAC032070B502F08DFA144D0646FFF7A4
:10303000D9FF2B685C6ED3F8A431E41A002C19DC9C
:1030400002F080FA831B0A2BF1D9BDE8704003F02F
:103050005BB82B6893F87E300BB100F0CBF803F02F
:1030600053F801F065FF2A68D2F8A4310133C2F8A1
:10307000A431013C002CECD170BD00BFECAC0320AE
:1030800070B50C4C04F5E0364FF4614596F80D36FA
:1030900005FB034303F5474343F804D99D46FFF777
:1030A000C1FF96F80D3605FB034404F54744D4F8F8
:1030B00000D070BDC022002038B504461D2015F098
:1030C000CFFB064B1D6840F21A43A5F86C30204632
:1030D00017F094F9A5F86E0038BD00BFECAC0320E2
:1030E00070B5F8B002F02EFA124C461E684601F098
:1030F00013F894F80D36C3F1010384F80D3602F08D
:1031000021FA0546801BFAD0694601F035F8C6B2AF
:1031100002F01CFB94F80F36002BFBD194F80D360F
:10312000C3F1010384F80D360EB178B070BD2E46A0
:10313000E5E700BFC0E2012038B5054D0C460A4660
:10314000296818F09FFC29682144296038BD00BF18
:103150002CE6032010B50446422015F081FB2046E2
:1031600017F04CF9024B1B68A3F86E0010BD00BFAE
:10317000ECAC032038B5124D2B68D3F8A431022BE8
:1031800004461CDD02F0A2FEC8B92B6893F8B731E3
:1031900023B12046BDE8384001F078B9204602F05E
:1031A000B9FC60B9204602F0A9F940B9204615F0F3
:1031B00017FE20B92046FFF73DFC0028E9D038BDB6
:1031C000ECAC0320024B1B68012283F87E20704781
:1031D000ECAC0320064B1A68B2F86C30013B1BB212
:1031E000002BA2F86C3001DAFFF7ECBF704700BF8C
:1031F000ECAC0320164B17481B68002283F8EC2028
:1032000083F8D52183F8D72183F87E2040F28112FC
:10321000A3F86C204FF44072A3F8B62193F87C20F9
:1032200093F881100132D2B283F87C2001EB820244
:1032300050F832200AB983F87C2093F87C3001EBF7
:10324000830300EBC30250F833305068184700BFC7
:10325000ECAC032020C40100044B1B68002283F85F
:10326000B621FF2283F87C20FFF7ACBFECAC032033
:103270002DE980484F4D504C2B6889B0002B00F051
:10328000CA804E4B1B68002B00F0C580DFF83CA1C4
:10329000042104A8CAF80030FFF74EFF2E68276803
:1032A000CAF800600C2105A8FFF746FF4449042234
:1032B00005A818F0AFFB0546002840F0DC81DDF8DA
:1032C00018B0404B4FEA0B1902460121484618F04E
:1032D00047F8079B49461E44CAF800608046FFF73E
:1032E0002BFF0BF1FF3308EB090103932E46AB468E
:1032F000A946AA4643F24C1C039B013318D1404611
:1033000018F0A6F8042387F88130BBF11D0F4FF0A9
:10331000000387F8DC3140F3B481012E4FF0020343
:10332000D4BF0026012687F8813087F8DC6165E08C
:1033300051F8080C244B00F0FF1E9E45A1F110022D
:103340001AD111F804ECBEF1000F15D111F8071CC9
:10335000342906D10AF1010A039B013B039311466C
:10336000CAE7332901D10135F6E73229FBD03129EB
:10337000F2D109F10109EFE7B2F808E044F24D1388
:103380009E4525D111F806ECBEF1500F20D111F861
:1033900003ECBEF1000F1BD111F8050C33280BF123
:1033A000010BD9D111F8041C31390129D4D80136C7
:1033B000D2E700BFB0000020ECAC0320B400002036
:1033C000C4C30100C9C3010045004D002CE6032021
:1033D000C64B984240F0388190896045BCD111F8C5
:1033E000021C0029B8D12268022387F8813082F8B4
:1033F000823082F88130404618F02AF8236893F82A
:103400008120022A00F04D8102D9032A40F04B812D
:10341000002283F8822001F061FBFFF7DBFD16F04C
:10342000F5FF14F045FF03F013F917F073F90CF0F2
:1034300003F902F09DF82368AD4F03F540530025D2
:1034400093F8391893F8380815F076F901F082FFEF
:1034500016F0EEF801F0D2FA236803F54052FF218E
:1034600082F83B1883F88050FFF7F6FE236803F5D7
:1034700040532A46B3F92E089E4B0121C00017F095
:103480006FFF0646236803F54053B3F92E188D42AB
:10349000C0F20B81984D0022C900012330462F68ED
:1034A00016F098FDF863304617F0D2FF16F066FE6E
:1034B000924A28609249D2F84005D2F840351B1A4A
:1034C0008B42FAD923688F4E002283F8802006F5BC
:1034D000E039DFF854A2FEF78DFB8B4A0023CAF8CF
:1034E00000301360236893F87D30002B00F0E880F3
:1034F00002F05AF820685C3000F006FF236893F869
:103500007E300BB1FFF776FE02F0FEFD01F010FDFC
:103510002368D3F8A4210132C3F8A4215A6E0132E2
:103520005A662368D3F8E80008B115F013FA02F0E0
:10353000F1F800285DD0236893F8B78193F97A7089
:10354000B84501D000F0D8FD226899F80D366F4DCE
:103550004FF4614101FB036302F5405103F2044360
:10356000C1F8DC376A490B60CF232B80694B0021FF
:10357000198092F8B731002B00F0D88092F97B00C7
:1035800008B916F04FFB226892F8B731022B00F011
:103590009A80032B00F09A80012B01D117F0B4FD23
:1035A000236893F9B72183F87A2083F87B2093F876
:1035B000D531ABB1584816F021FF14F0CFFE0546C7
:1035C000554816F01BFFC5F5A0720346042102EB17
:1035D000D2700622009201910022401016F010FBDA
:1035E00002F09CFFFFF7FEFCB84540F0C08002F0FF
:1035F000ADF802F00BF9236893F88020002A3FF41D
:103600006AAF5A6F01325A6701F096FF2268434948
:10361000136FC31A8B427FF65CAF516F404D694305
:1036200007EE901AB8EE677A07EE903AF8EE677AEE
:10363000C7EE276AFDEEE66A16EE903AA2F87830F9
:103640000023C2E91C0344E7364B98427FF484AE62
:10365000908960457FF480AE11F8021C00297FF448
:103660007BAE23680222032187F8812083F8821031
:1036700083F88120BFE60026B346B1463546B24600
:1036800040E6BAF1080F03DD032387F88130B5E681
:10369000112D01DD0123F8E7B9F1080F7FF7AEAE78
:1036A000F3E70122B5E60422B3E6284616F01AFF36
:1036B0000821386006EBC500FFF73EFD0135E1E665
:1036C000FFF7DEFC2DE700F011FC69E7B2F96E3080
:1036D000002B3FF465AF06200422CDE90002002252
:1036E0001146104616F08CFA5AE700BF4D5552416C
:1036F0002CE60320E4C3010004F7032000A00140EE
:103700009F860100C0220020F8F6032048F4032021
:103710004CF4032046F403200EC401003F420F0086
:10372000809698005746414CE0AC0320D2F8A41193
:10373000D2F8A83199423FF433AF01F091FE2068EE
:10374000037903F00303012B02D0E83013F068FB88
:1037500023681B79DB0701D5FFF7AAFA01F090FE79
:10376000EF23002101202B8015F0AAFC18E700F0C0
:10377000CBFCFFF7B5FC3CE7094B1B6893F8A310A3
:1037800041B903F5405292F8310883F8A30020B103
:1037900082F831189FED030A7047B0EE080A7047AF
:1037A000ECAC03200AD7233C10B5564C23684FF4E9
:1037B0000072A3F8B6211A7903F5405122F00102F4
:1037C0001A71002283F8A32081F8312893F8813000
:1037D000022B4FF0010126D002D9032B40F0888044
:1037E0001F2015F01DF8236893F8B921013A032A28
:1037F00028D8DFE802F002090E13434AC3F89C20E0
:10380000424AC3F898201DE0414AC3F89C20414A2F
:10381000F7E7414AC3F89C20404AF2E7404AC3F820
:103820009C20404AEDE7412014F0FAFF236893F80A
:10383000BA21142A36D00CD80B2A27D00F2A49D007
:10384000062A14D02368002283F8A220A3F8A0201F
:1038500010BD1E2A32D01F2AF4D193F88210324AAA
:10386000C3F89C20022941D0304A314808E093F83F
:103870008210304AC3F89C20022905D02E4A2F48D6
:10388000032918BF0246BCE72D4ABAE793F8821015
:103890002C4AC3F89C20022902D02B4A2B48EFE780
:1038A0002B4AAEE793F882102A4AC3F89C200229DB
:1038B00002D0294A2948E3E7294AA2E793F882106F
:1038C000284AC3F89C20022902D0274A2748D7E774
:1038D000274A96E793F88210264AC3F89C200229CB
:1038E00002D0254A2548CBE7254A8AE7254A88E7BA
:1038F000412014F095FF2368234AC3F89C200F4A07
:103900007FE700BFECAC03200ED9010017D90100FE
:1039100041DA010049DA01009DDB0100A5DB01006D
:10392000D4DC0100DCDC01005DDE010048D80100D0
:10393000B3D8010035DE0100E8C501009AC70100D7
:1039400062C401003DDE010042CA010004CB010057
:103950000BC9010045DE0100C2CD01000BCF010003
:103960008CCC01004DDE0100C6D1010093D30100D3
:1039700044D0010055DE0100A1D5010041D601006F
:10398000F3D40100E6D6010065DE01001149124BB7
:10399000B1F9421011481B6800EB0110C3F88C000C
:1039A0000179407941EA0021FF2209B283F87A20A7
:1039B000C3F888100022022183F8A210C3E9242250
:1039C000C3F8842083F8A62083F8A52001213F2096
:1039D00014F026BF3CF10100ECAC0320D01602002D
:1039E000F8B5A54D2968D1F88830013B002BC1F806
:1039F000883000F3A880D1F88C20A04C137950793E
:103A000043EA00231BB2013306D0D37A907A40EA0E
:103A1000032003B200286FD1D1F88430984E994F1B
:103A20005A1C002056F8323081F8A600834218BF95
:103A30001346C1F8843006EBC3033C221B7902FB1A
:103A40000373B3F9081009B115F0D6F82A68D2F853
:103A5000843006EBC3033C211B7901FB0377B7F9E4
:103A6000063004EB0313C2F88C300023C2F8903008
:103A70002868D0F890300C2B40F0F4800123D0F867
:103A8000842080F8A5307E4BD0F8946003EBC2030D
:103A90003C2219797B4B02FB0132002E00F0DF80C3
:103AA000B2F9142004EB021286F00107A242C0F81A
:103AB0008C20C0F894700CD13C2202FB0133012E03
:103AC00014BFB3F91430B3F9163004EB0313C0F884
:103AD0008C30D0F884206A4B03EBC2033C211A7966
:103AE000684B01FB0233D0F88C20B3F9063004EBAD
:103AF00003139A421AD103E004F51A60824223D1DB
:103B00002B680022D3F8841083F8A520C3F89020F6
:103B10005B4A02EBC1023C2011795A4A00FB0122A8
:103B2000B2F9062004EB0214C3F88C402A68D2F8DC
:103B30008C100B79497943EA01231BB2591C08BF49
:103B40000F23C2F88830F8BD04EB0312C1F88C20B3
:103B5000D1F89020B3F5D27F02F10102C1F8902094
:103B60002CDAB3F5D07F74DCB3F5807F66D008DC47
:103B7000B92B68D0DA2B6CD09A2B7FF479AF042163
:103B80005DE0B3F5A97F60D005DCB3F5A87F7FF4D5
:103B90006FAF382153E0B3F5AA7F58D06FF4BC70F3
:103BA00003449BB2062B3FF663AF012202FA03F3F4
:103BB00013F0490F3FF45CAF102140E040F269225E
:103BC00093421FDCB3F51A7F43DAB3F5F37F42D09B
:103BD00005DCB3F5E37F7FF44BAF37212FE040F2F4
:103BE0004E22934228D03FF743AF40F21A2293422D
:103BF000E2D040F237229342DED040F2F9129342F3
:103C0000DAD035E740F2AF2293420AD0B3F52C7FE9
:103C100009DAB3F5227F20D040F2AD2293427FF43F
:103C200027AF0E210BE040F2B1229342F9D040F2CF
:103C3000C62293427FF41CAF332100E036210020DE
:103C400014F0DAFF14E70121F9E73521F7E76B21DA
:103C5000F5E70221F3E73421F1E70821EFE7B2F9B4
:103C600016201FE790F8A520002A3FF45FAF182B1D
:103C70003FF446AF2DE700BFECAC0320D0160200A6
:103C80005CDF01003CF1010010B5344C2DED028BDE
:103C900017F0C8F92368B3F8A0200132A3F8A020D8
:103CA00093F8A230022B01D1FFF79AFE236893F814
:103CB000A230002B4FD1FFF75FFD2468B4F9A0308C
:103CC000D4F8980008EE103AF0EE408A17F058FF4A
:103CD00007EE900A94F8A330DFED216AB8EEE77A98
:103CE000DFED207A002B08BFF0EE667A47EE287AE7
:103CF000B8EEC88AB4EEE78AF1EE10FA05DC53B3E9
:103D000004F5405292F831282AB394F88120022A0F
:103D100013D00023A4F8A030012384F8A230FF239D
:103D200084F87A3094F8B931032B14D1BDEC028BAE
:103D30001E20BDE8104014F093BD63B194F8BA3171
:103D40001E2B05D1BDEC028BBDE81040FFF71EBE57
:103D5000082384F8B631BDEC028B10BDECAC032017
:103D600000007A4300007A4438B5037863BB174BF0
:103D70001B6893F8A60008B1012038BDD3F8841061
:103D8000134A144DC3F8900002EBC1023C21127992
:103D900083F8A50001FB02550F49B5F9182001EB86
:103DA0000211C3F88C100A79497942EA0122B5F967
:103DB0001C10012412B283F8A640C3F88820002901
:103DC000DAD014F019FFD7E70020D6E7ECAC0320D7
:103DD0005CDF01003CF10100D0160200044B1B68BF
:103DE00093F8A230022B01D1FFF7BEBF002070472D
:103DF000ECAC03202DE9F3413748384EDFF8E4807E
:103E000016F0FCFA042203460620CDE90002002247
:103E10001146104615F0F4FE3368D3F88420304B79
:103E200053F8325000242F461FB117F8010B002819
:103E300031D104EBD47464102A4FC4F17804002DFE
:103E400035D13068284BD0F88C101A684C780B7834
:103E5000126AB0F90E0543EA04231BB202EBC30356
:103E60008A78C97842EA0122C2F30E0212214A433B
:103E700059688C188B5E227C02F001020432019298
:103E80000622009203440022AA21A02015F0B8FEC9
:103E900002B0BDE8F08117F0B3FD21383F289BBF89
:103EA00058F82030B3F900300434E418BCE715F8B2
:103EB000010B0028C5D017F0A3FD21383F2801D9F8
:103EC0000434BCE757F82020B2F900802046902146
:103ED00013F09EFC4444B2E76CDE0100ECAC03201E
:103EE0005CDF010030E5032004F703202DE9F043F7
:103EF000764D2B6893F8A220022A87B004D107B030
:103F0000BDE8F043FFF776BF002A3ED1D3F89C000E
:103F1000DFF8E09115F094FC2B68D3F89850B3F9D2
:103F2000A0300A3B07EE903AFFF726FCF8EEE77A5E
:103F30000A2687EE807A3746BDEEC77A17EE103A2A
:103F4000002BACBF05EB030805F10008454502D185
:103F500007B0BDE8F08315F8010B0028F8D00A2857
:103F600002D10B360746F1E717F04AFD21383F280A
:103F700001D9381DF6E759F82020B2F9004038463B
:103F8000314613F045FC3819ECE793F8B921013AB2
:103F9000032ADDD8DFE802F002131A9793F8813084
:103FA000032B0CBF4A484B4816F028FA042403465A
:103FB00001940622009200221146104680E04648F5
:103FC00016F01CFA042203460192F2E7B3F9A0406E
:103FD000E63C04EBD4746410644204F5A076002E31
:103FE0002ADC3E4816F00AFA06224FF0040CCDE90E
:103FF000002C002203461146104615F001FE2B68E6
:10400000B3F9A04040F269429442A1DD40F29B42E4
:1040100094422EDC324816F0F1F9042606220346BB
:10402000CDE90026442100226C2015F0E9FD2B6823
:10403000002283F8A4208BE72A4816F0DFF9042732
:10404000B6F5A07F4FF000024FF00606CDE90067FD
:1040500003461146D0DA604215F0D2FD1F4816F033
:10406000CDF9034620480022CDE900671146001B28
:10407000C3E740F2BE429442D8BFA4F29C4493F8F6
:10408000A430D7BF24B206240522B4FBF2F4A34225
:1040900006DA0121002014F0AFFD2B6883F8A4405C
:1040A0001249224603A8FCF7EDFC03A816F0A6F976
:1040B000042203460620CDE90002442100226C20A0
:1040C00015F09EFD44E70A487AE700BFECAC0320F8
:1040D00075DE01007CDE010082DE0100F2DF0100FE
:1040E0008BDE0100ECDF0100C0FEFFFF90DE01006F
:1040F00096DE010030E50320024B1B680020C3F868
:10410000A8007047ECAC0320024B1B680020C3F8EA
:10411000A8007047ECAC03202DE9F041044602F002
:10412000E9FA424202F00F0200F00F0358BF534277
:104130005B42238004F5EF7503264FF6F1774FF0CD
:10414000000802F0D7FA90FBF6F303EB430334F9CF
:10415000022BC31A013B13441BB2002B05DDA4F84C
:104160000080AC42EDD1BDE8F08113F1100F14BF17
:1041700023802780F5E700002DE9F74F334F0191A9
:10418000012307F5E0384FF4614E4FF0F00C013891
:1041900003D2184603B0BDE8F08F019A0021941EA7
:1041A0006FF0EF0934F9022F002A06DA013222807B
:1041B00000230131F029EAD0F4E7EF2AF9DC0F2AD5
:1041C000DABF531C1BB20923C2F1F0051A44EF2ACF
:1041D000C8BF2B4698F80D260EFB021202F20442CD
:1041E0003A44C3F1EF0A0CFB0A2AED1A02F56042C9
:1041F000103209FB05F50026B54221D198F80D666D
:10420000B4F90050C6F101020EFB02120EFB0616B5
:1042100006F2044602F2044215FB0C2215FB0C6563
:104220003A443D440CFB03FA002612F806B005F8A8
:1042300006B0F036B245F8D1228813442380B7E7A0
:104240001AF806B002F806B0F03ED5E7C02200200A
:10425000024A1368591C1160187870472CE6032035
:1042600038B51E4D286890F97A3013B9FF2380F8CD
:104270007A30002380F8B73190F8D93133B190F813
:10428000EC30012B04BF022380F8EC30144B90F883
:10429000BA1100241C60134B80F82A411C60124B99
:1042A00080F82B411C60224690F9B83190F8B90192
:1042B0000AF080FC2D68214685F8B641102205F5EC
:1042C000DE7017F008FC85F8CD4185F8D54115F072
:1042D00013F8BDE8384001F059B800BFECAC03203A
:1042E000C0000020C8000020D000002038B5054DD7
:1042F0000C460A46296817F0C5FB29682144296045
:1043000038BD00BF2CE60320F8B55B4F0822002122
:10431000054617F0E0FB3B6893F8BFC193F86522B0
:10432000B3F8C4118CEA0202002900F0938093F8DC
:10433000CC110131C9B2062983F8CC1140F28E802C
:10434000062183F8CC11114693F8C50120B14B48E2
:1043500050F821004042688093F8C40128B14748D2
:1043600050F8211068880144698093F8C24114B163
:10437000434951F8224093F8C31119B1404951F80B
:104380002210641A93F8C76116B13E4951F82260B1
:1043900093F8C61119B13B4951F82220B61A93F887
:1043A000BE210AB10122EA71BCF1000F03D0EA7903
:1043B00042F00202EA7193F8C021002A51D003F1C1
:1043C000E80009F08DFE0A281FBFEB7943F00403D3
:1043D00043EAC000E8716FF031039E42B8BF1E4649
:1043E000322E3A68A8BF3226002C43D0A342B8BF71
:1043F0002346322BD2F8A011A8BF32235BB259B9A1
:104400002148016801310160C90605D143F001036B
:10441000022B01DD023B5BB229780B442B706B78D9
:104420001E44B5F902306E7043B1D2F8A01129B123
:1044300043F00103022BC4BF023B1BB26B8092F915
:10444000CD1192F8CD310029BEBFEB71002382F867
:10445000CD31F8BD83F8CC11022175E73FF473AF7D
:10446000FAE793F8C121002AB5D003F1E80009F07A
:1044700061FEA8E72346CFE7ECAC032018E001007B
:10448000A4E0010094E10100E4AC032038B51F4D25
:104490002B6893F8B61193F8B7210446D1B993F875
:1044A000DA1199B9032A15D193F8D52192070FD4BF
:1044B0001B79DB070CD4237823B1023B012B07D8EF
:1044C00063682BB101F076FC012002E0032AEBD0F7
:1044D000002038BD022A0AD0237873B1012BF7D10E
:1044E00062680F2AF4DC2B68002013440BE020469E
:1044F000FFF774FC0028EFD0E6E762680F2AE3DCE0
:104500002B680120134483F8BC01E2E7ECAC0320E4
:104510002DE9F341224B1C68042204F595752946C8
:104520000DEB020017F0AEFAD4F85481B4F95A71C9
:10453000D4F85C61B022002104F1E80017F0CBFA56
:10454000C4F85481022201A9284617F09BFA40F2D0
:104550000113A4F85231002384F8EC30114BA4F875
:104560005A711B68A4F810314FF00113C4F82C31B4
:10457000C4F830310C4BC4F85C611B68A4F84231BC
:104580000A4B1A68A4F84A215A68A4F84C219A6880
:10459000DB68A4F84E21A4F8503102B0BDE8F081E8
:1045A000ECAC032088690200846902008C69020077
:1045B00008B514F07BF9044B1B68002283F8D32163
:1045C000062283F8B62108BDECAC032008B514F030
:1045D0006DF9094B1B6893F88120022A0AD193F8E0
:1045E000DC21003A18BF012283F8D321062283F888
:1045F000B62108BD0122F7E7ECAC032070B5594E97
:10460000346894F8D931002584F8B6518BB10C2266
:10461000294604F58B7017F05EFA0622294604F548
:10462000917017F058FAC4F8E850C4F86C51C4F807
:1046300064512379DB0701D5FEF73EF9346894F81D
:10464000812094F8BA31022A04D0092B04BF012139
:1046500084F8941194F8B90194F8941184F8B9107D
:104660005D1E411E022A94F8D36184F8B81084F8C4
:10467000BA5060D1002E58D00F2B52D01F2B6DD0C6
:10468000022A1BBF0A2202FB0033374B374A0CBFFA
:1046900053F8253052F82330B4F8AC11A4F8BC100C
:1046A00023225343C4F8C4300023B4F8B011A4F853
:1046B000C83094F8D931A4F8BE1084F8CC30B4F8DE
:1046C000B211B4F85A31D4F8F454A4F8C010A4F8D4
:1046D000CE300021D4F85C31A4F8C210C4F8D03038
:1046E000C4F8D450082204F5957104F1D80017F0ED
:1046F000C9F9D4F89C31232295FBF2F502FB05336E
:10470000C4F89C31C4F8E430012384F8B73123792C
:1047100023F00103237104F1B800BDE8704016F0E6
:104720002FBD1E2184F8BB10AAE7A3F11F010129A8
:1047300014D80F21F6E70EB10821F3E7092B0DD1AC
:1047400003299DD8DFE801F0020406080321E9E708
:104750000521E7E70621E5E70221E3E784F8BB301E
:104760008EE700BFECAC032024E00100F4E0010080
:10477000114B1B6893F8D311082283F8B62111B1AD
:10478000012283F8942193F8810093F8BA2102283A
:104790000CD11F2A0FD801239340084A1A401AB996
:1047A00013F0802F07D031B1FEF7FEBF082A04BFF7
:1047B000072283F8B6217047ECAC03204008104074
:1047C00038B50A4D2B6803F54052FF2182F83B189B
:1047D00093F8BB200024013283F8B74183F8BA2153
:1047E000FFF73EFD2B6883F8B64138BDECAC0320E3
:1047F0002DE9F843224C234D234FDFF89880DFF852
:10480000989004F5E0334FF4614293F80D3602FBC3
:104810000344FDF7E7FA1D4BA0F5805004F2044471
:1048200040F0905018604FF440712046FFF75EFD55
:1048300004F540762368012B0AD01549284617F065
:104840007DF96034B44205F10805F3D1BDE8F88381
:104850003B6893F88130022B06D1E3684A46082171
:104860002846FCF723F9ECE74146284617F066F99D
:10487000A36830336B70E3683033EB70E1E700BF5F
:10488000C02200204CE80320ECAC03202CE60320DF
:10489000F8DF010005E00100FEDF010013B504466A
:1048A00001910092FDF79EFA01382040FDF7D0FA01
:1048B000FDF798FA009A01990138204002B0BDE84E
:1048C0001040FDF795BA0000F8B5304D304E05F5B3
:1048D000E0334FF4614293F80D3602FB0355FDF7C8
:1048E00081FA2C4BA0F5805005F2044540F0905021
:1048F00018604FF440712846FFF7F8FC326892F8D0
:10490000D23103EB430359010120685005EB4313F7
:1049100092F8B811197192F8B911996092F8BA1118
:10492000D960D2F89C11196192F86512596192F818
:104930007F10996102F5987403F11C0102F5A170D2
:1049400034F9027B41F8047B8442F9D1403302F50B
:10495000A57234F9021B43F8041B9442B4F9061003
:10496000D960F6D1FDF73EFAA0F580504FF44072C1
:10497000294640F09050FFF791FF3368064AC3F88C
:104980006021BDE8F840FFF733BF00BFC022002020
:10499000ECAC03202CE603200AE00100024B1B686C
:1049A00083F8D201FFF790BFECAC03207FB5114B29
:1049B0000093114B1B6893F87F20029293F86522B5
:1049C000019293F86422039203F5405393F8392837
:1049D00093F8383804920593FDF704FAA0F50050D7
:1049E0001822694640F09050FFF758FF07B05DF875
:1049F00004FB00BFD1EADDBAECAC032070B52C4E4D
:104A000006F5E033182293F80D564FF461435D43E9
:104A100005F20445AC190021204617F05CF8FDF7BB
:104A2000E1F9244BA0F5005040F090501860182197
:104A30002046FFF75BFCAA591F4B9A4236D1A0686B
:104A40001E4D04282B6828BF042083F87F0062686D
:104A5000003A18BF012283F86522E268003A18BFC5
:104A6000012283F86422626903F540530F2A28BFAC
:104A70000F2283F8382822690F2A28BF0F2283F8D3
:104A8000392815F0D1F8002015F0CCF82B6803F583
:104A9000405393F8380813F041FE2B6803F5405358
:104AA000BDE8704093F8390813F026BE70BD00BF12
:104AB000C02200202CE60320D1EADDBAECAC0320B2
:104AC000054B1B6883F8D121022283F8CF0183F8BC
:104AD000D01183F8B6217047ECAC0320024B1B6861
:104AE0000022A3F8DA217047ECAC03202DE9F04155
:104AF000274F3B68154693F8D52106460C4622B150
:104B0000002283F8D52113F0DBFD3B68042E93F8D7
:104B10008130B046A8BF4FF00408012CB8BF012473
:104B2000032B2BD1042CA8BF0424002D2DDD092D2F
:104B300002DD022B18BF092501F0ECFD3B680222C3
:104B400083F8EC20012283F8D7211A7983F8B94140
:104B5000032ED4BF00260126002122F0010283F893
:104B6000D46183F8D5111A7183F8BA5183F8B881EA
:104B7000BDE8F041C3F89C11FFF772BB1BB1032CD9
:104B8000A8BF0324D1E70124CFE70125D4E700BF64
:104B9000ECAC032070B5324D324E05F5E0334FF4E6
:104BA000614293F80D3602FB0355FDF71BF92E4BBE
:104BB000A0F5805005F2044540F0905018604FF485
:104BC00040712846FFF792FB336893F8D24104EB1B
:104BD0004404620105EB4414AA58012A3ED122790B
:104BE00083F8B821A26883F8B921E26883F8BA2172
:104BF000626983F86522A06983F87F00C0B215F06E
:104C000013F8336893F8BA2193F8B91193F9B801FE
:104C1000FFF76CFF32682369C2F89C3102F5987186
:104C200004F11C0304F1400053F8045B21F8025B1B
:104C30008342F9D102F5A171503453F8040B21F8E5
:104C4000020BA342D868C880F7D1084BB2F94A11C9
:104C50001B689942C4BF012382F8283170BD00BF90
:104C6000C0220020ECAC03202CE603208C6902005B
:104C7000044B1B68002283F8D20183F8DA21FFF786
:104C800089BF00BFECAC032010B50A4CFFF726FF2C
:104C90002368012283F8D12193F8D01193F9CF0131
:104CA000FFF724FF2368002283F8B621BDE81040F7
:104CB00014F022BBECAC03202DE9F04F564B574FBC
:104CC0001868574D85B001A915F09EFA002401A877
:104CD0008DF80C4015F092FB3E68286015F002FC40
:104CE000C6F8AC002868D7F800804E4E15F0B8FB27
:104CF000D8F8A431D8F8ACB0C8F8A831C8F8B000DA
:104D0000C6F800B0FFF7A4FA3B6888F8BB0193F837
:104D1000BB01C3F8A041C7284FF001024DD86E284F
:104D20004FFA80F988BFC3F8A0210BF10103B9F154
:104D3000630F0BF102050BF10304336035DDFFF760
:104D400087FA35604FFA80F9FFF782FA34608246BD
:104D5000FFF77EFA0BF109040546D7F800B034607E
:104D6000FFF776FA3B688BF8D90193F8B631032B3D
:104D700004F1040404D02A4651464846FFF7B6FE23
:104D80003B680022C3F85421C8F8B44083F8B62128
:104D900083F8D721012283F8DA2100F0D3FB3B68A6
:104DA000C3F8980105B0BDE8F08FFFF751FA356000
:104DB0008246FFF74DFA0546CFE7CB380BF10704E3
:104DC0000B280DD8DFE800F0060C0C0C0C0C0C0ABC
:104DD0000A0A0A249BF802304D2B01D10BF108047A
:104DE0003460FFF735FA631C33604FFA80F9FFF740
:104DF0002FFAA31C33608246FFF72AFA3B6893F828
:104E0000BB31C82B054614BF453404F20514A4E792
:104E1000C3F8A021E2E700BFE8AC0320ECAC03201C
:104E2000B80000202CE6032010B50C4C236893F842
:104E3000D8310BB100F086FB236893F8DA0158B142
:104E4000074B1A6801321CBF4FF0FF321A60FFF7A0
:104E500045FEFEF7B7F9012010BD00BFECAC032002
:104E6000B8000020F8B5304E304D3368D3F8B43078
:104E70002B600446FFF7ECF9802803D1BDE8F84029
:104E8000FFF7D2BF336893F8DA11D3F8B42069B1D1
:104E9000D3F8A011D3F8B0700029D3F8AC1014BF28
:104EA00005200420104439448842E7D8511CC3F837
:104EB000B4102A60FFF7CCF920703268D2F8B43011
:104EC0002B60591CC2F8B410FFF7C2F96070326849
:104ED000D2F8A011D2F8B43091B9591CC2F8B4106C
:104EE0002B60FFF7B5F9000232686080D2F8B43069
:104EF0002B60591CC2F8B410FFF7AAF9E071F8BD95
:104F0000591CC2F8B4102B60FFF7A2F93268D2F82E
:104F1000B4302B60591CC2F8B4100746FFF798F95B
:104F200007EB0020E0E700BFECAC03202CE60320F9
:104F300038B5654C07F006FA236893F8D92132B1E9
:104F400093F8EC20022A04BF012283F8B62107F06F
:104F5000FBF90225216891F8B6315A1E53BB91F82E
:104F6000D531980707D491F8DA51002D44D191F842
:104F70006D32002B40D0D1F8A8310133C1F8A831EF
:104F8000226892F8CE3192F8B7219A4208D0012BCC
:104F900001D115F053FD236893F8B72183F8CE2192
:104FA000226892F8B73192F8D52192076FD5002B7D
:104FB00073D038BD072AD1D8DFE802F004090C0FFE
:104FC0001215181B81F8EC50FFF74AF9C2E7FFF7FA
:104FD0005BFEBFE7FFF7DEFDBCE7FFF775FCB9E757
:104FE000FFF76AFEB6E7FFF709FBB3E7FEF7DCFB66
:104FF000B0E7FFF7E5FBADE791F8D9314BB101F12F
:10500000EE0308225C31184616F03CFD0DB1FFF7A7
:1050100029FF236893F8D921002AB1D093F9F5101C
:1050200093F8F5200029ABDA02F00301022915D02C
:10503000032926D0012919D193F8D52182F0010145
:10504000012A83F8D51106D013F01EFB2368002235
:1050500083F8F52094E713F033FBF7E7C2F38202FD
:1050600083F8D221042283F8B621EFE7C2F382024B
:1050700083F8D221032283F8B621002283F8D621B7
:10508000E4E793F8DA21002AE0D10122EBE7032BD1
:105090008FD8DFE803F0020C10140CF093FF13F02C
:1050A000A1FEFDF793FDBDE8384000F0FFB9BDE873
:1050B000384015F0DBBFBDE83840FEF7E5BDBDE880
:1050C0003840FEF787B800BFECAC032008B5184A9B
:1050D000184B136000214FF46152184616F0FBFC88
:1050E00043F23332034682644FF6FF71012280F8A7
:1050F0005220A0F850104FF48030586598654FF654
:105100000370A3F87A0083F86422A3F81C25042016
:1051100003F2A452C3F8A82583F8810003F5405395
:1051200040F60F72A3F83828A3F8C01708BD00BFD7
:10513000ECAC0320F0AC03204360BDF900300381E8
:105140000023438103734FF4803301804280C362A4
:105150007047B0F90A201F2A4FF0000313D00A2924
:105160001CBF01324281B0F92C2008BF4381531C7F
:105170001BB2024483850344117300221A73042373
:10518000C38501207047184670472DE9F14F064648
:105190006FF00B09B0F902A036F90C4B05460F462B
:1051A000A9EB00094FF05008B5F92C2009EB0603D4
:1051B0009A422EDD16F8010B16F022FCC0B20A2826
:1051C00003D10AF1080A0024EEE7092806D194FB6E
:1051D000F8F308FB1343E41A5034E5E7202815D010
:1051E000B5F90830834211DC5F280FD8C01A6B680C
:1051F00053F82020B2F900B0A344BBF1F00F08DC53
:105200002046514612F004FB5C46CDE70434EF2CF7
:10521000CADDA7B1B5F908306A68C3F15F0352F877
:105220002330B3F900202244B2F5A07F07DC00222E
:105230005146204601B0BDE8F04F14F053BB01B019
:10524000BDE8F08FB0F92E300BB1013BC38570473C
:1052500010B5049C4463012480F838400024A34224
:10526000038644860BDD029B4360BDF90C3003814D
:105270004FF480330180428044810473C36210BDC7
:10528000438E01331BB270B543860446B0F930003B
:10529000834204BF00236386B4F9323016463022BD
:1052A00002FB0343002290429A855A811A73D5BFAC
:1052B00001220423DA85E38519B14D1E15F8011F7B
:1052C00021B9013E16F8011F49B970BDB4F9320089
:1052D00000EB400004EB0010FFF73BFFEEE7B4F9F2
:1052E000320000EB400004EB0010FFF732FFE9E76B
:1052F00070B5436B1B78044683B970BDB4F93200B6
:10530000401B48BFC018002106FB0040FFF73DFFCF
:105310000135B4F93030AB42F0DCEEE70025302641
:10532000F7E710B5024600210424B2F930308B4271
:1053300004DC536B1B7882F8383010BD92F838309B
:105340001BB1536B1B7803B9C485FFF77BFF013199
:105350003030EAE77FB50B4D0B4E21242246314613
:1053600001A8FBF78FFB01A815F048F801220021E6
:1053700014F0C2FE0134602C45F8040BEED104B0E9
:1053800070BD00BF30E503209CE101007FB52D4DCD
:10539000286890F84F2200230AB180F84F3280F835
:1053A0004D3280F84E32284C009400F24D230022FA
:1053B00021261146029300F5047001230196FFF7A0
:1053C00047FF236828685A880096C2F1CF02234617
:1053D00012B2002100F5F070FFF7AEFE2B6893F8D3
:1053E000B72192B993F8811093F8BA21012901D914
:1053F000032915D193F8B931013B03EBC3031344DF
:10540000124A013B52F8234000E0114C013C14F8D1
:10541000011F286889B9012380F84F3204B070BD9C
:1054200093F88210022902F1FF3301D1094AE9E71A
:1054300003290CBF084A094AE4E700F5F070FFF7BA
:1054400088FEE4E7ECAC032030E5032084EC0100A7
:10545000ACBD010014EE010094ED010014ED01005B
:1054600010B5064C206800F50470FFF75AFF20685D
:10547000BDE8104000F5F070FFF7E4BEECAC03208F
:1054800010B5094C20680379DB0704D5002100F52D
:10549000F070FFF77AFEFFF7E3FF2068BDE81040E9
:1054A00000F50470FFF724BFECAC032038B5124DB3
:1054B0002C6894F84C3233B1013BDBB284F84C32A7
:1054C0000BB984F84D3294F8643213B994F84E3223
:1054D0008BB1D4F8602172B1002104F50470FFF79C
:1054E000CFFE2B6800224FF4C671C4F86021A3F8E8
:1054F0004C1283F84E2238BDECAC032000207047DC
:10550000072970B50CD8084D06234B43EC184FF60D
:10551000FF76EE520023638020716271084670BDF1
:105520004FF0FF31FAE700BF94AC0320704770479B
:105530007047704770477047014BD3F8400570477C
:1055400000A00140084A094B1268D3F84035D2F850
:10555000540210B9C2F854327047181A46F69B73B9
:10556000B0FBF3F0704700BFECAC032000A001409B
:10557000044B1B7813B1044B1B780BB9FFF7D6BF54
:10558000704700BF60C4010061C4010007B500237B
:105590000DF10600ADF80630FCF784FEBDF80600FC
:1055A00003B05DF804FB0000F0B585B0FFF7EEFF37
:1055B00010F0020F00F4007400F0080200F0200365
:1055C00079D0A4B2002C18BF4FF400640AB144F49F
:1055D0008064460744BF44F00804A4B2450644BFB3
:1055E00044F02004A4B213B144F00404A4B210F4B3
:1055F0001B7F02D144F00204A4B2030644BF44F06E
:105600004004A4B2C70644BF44F08004A4B2C60755
:1056100048BF44F400543A4F48BFA4B2C50548BF40
:1056200044F480543E8848BFA4B266400025B6B218
:105630008DF8005046FA05F3D80707D544FA05F36C
:10564000D90703D568460195FDF794FD0135102D66
:10565000F0D101238DF80030002546FA05F3DA0772
:1056600007D544FA05F3DB0703D468460195FDF737
:1056700081FD0135102DF0D122493C80D1F8102553
:10568000D1F81035204D214C12F004020CBF012638
:10569000002613F480630CBF0127002742BB287843
:1056A0000BBB08B1237813B9194B01221A702E7065
:1056B000277005B0F0BD0AB144F4807413B144F012
:1056C0000404A4B200F04403442B02D144F02004AB
:1056D00092E7410744BF44F00804A4B242068CD5C7
:1056E00044F0100488E70028E1D100F001FBDEE778
:1056F000002BDCD12378002BD9D10120F5E700BFA6
:1057000032E603200003005030E6032031E6032098
:1057100034E803200A4B03F5E0324FF4614192F87C
:105720000D2601FB0233074A126802F5405203F2CC
:105730000443C2F8DC37044A01201360704700BFFD
:10574000C0220020ECAC03204CF4032070B5264BA3
:1057500026491B6893F85C0293F87F40C3F85812FF
:10576000234B1B685A6A4FF440735843131802F5D1
:10577000407234B310441F4A0E4602EB04241A78D8
:10578000A25CD5085A78A25C9208520142EAC5226E
:105790009D78655D033342EAD50252BA834226F80A
:1057A000022BECD1144C216004F5E03494F80D0682
:1057B000FCF704F894F80D36C3F1010384F80D36B4
:1057C00070BD0D4610441A78D4085A7892085201D8
:1057D00042EAC4229C78033342EAD40252BA984285
:1057E00025F8022BEFD1DDE7ECAC032034E60320F3
:1057F00004F7032084DB0300C0220020024B1B6857
:1058000083F85C02704700BFECAC0320064B1A78AB
:1058100042B100221A70054B187880F00100187010
:10582000FBF706BF704700BF34E80320BC00002030
:105830004FF00043C36003606FF000438360436038
:10584000704783688B4205DD81604368934206DDC3
:1058500042607047C3688B42B8BFC160F5E7036818
:105860009342B8BF02607047094B1B68D3F85421BC
:1058700082F00202C3F85421920749BF054A064A42
:105880001268A3F8102148BF044AC3F8602170478A
:10589000ECAC032078690200275A0200105A02007B
:1058A00010B5264B1B6893F828216AB903F5A57239
:1058B00003F5A970B2F90010490022F8021B8242D8
:1058C000F8D1012283F828211D4A1268A3F8122179
:1058D0001C4A1268A3F8142103F5987100220120D4
:1058E000541F012C20D893F881401CBB0132092A97
:1058F000F6D103F5A1710022022A02D193F88100AA
:1059000008B1088908800132042A01F10201F3D1AB
:1059100040F20112A3F822214FF00132C3F82421F2
:10592000094AC3F8602110BD082A03D193F88140C9
:10593000022CDBD121F81200D8E700BFECAC032029
:105940007C690200806902003F5A020010B5224BB8
:105950001B6893F828216AB903F5A57203F5A970AD
:10596000B2F90010490022F8021B9042F8D101223E
:1059700083F82821194A1268A3F81221184A1268DC
:10598000A3F8142103F5987100220120541F012C63
:1059900018D893F88140DCB90132092AF6D103F511
:1059A000A1710022022A02D193F8810008B108896E
:1059B00008800132042A01F10201F3D1094AC3F837
:1059C000602110BD082A03D193F88140022CE3D155
:1059D00021F81200E0E700BFECAC03207C69020074
:1059E00080690200555A0200084B09491A68D2F82A
:1059F000543183F0010313F0010FC2F85431054B09
:105A000008BF0B46C2F86031704700BFECAC032002
:105A10007E5A02006A5A02000E4B1B68D3F85421CA
:105A200082F00802C3F85421120711D50A4A1268FD
:105A3000A3F810210122A3F83821B3F85021A3F8CC
:105A400048210422A3F82E21044AC3F8602170479C
:105A5000034AFAE7ECAC032078690200935A02008B
:105A6000A45A0200084B09491B6893F88020002AB9
:105A70000CBF0122002283F88020054A18BF0A4685
:105A8000C3F86021704700BFECAC0320C55A020088
:105A9000B65A0200FEF78CBD024B18680521E830AB
:105AA00004F0FEB8ECAC0320024B18680221E83089
:105AB00004F0F6B8ECAC0320024B18680121E83082
:105AC00004F0EEB8ECAC0320024B18680021E8307B
:105AD00004F0E6B8ECAC0320024B18680421E8306F
