:100000000000042089230000C5230000C72300004E
:10001000C9230000CB230000CD2300000000000016
:10002000000000000000000000000000CF230000DE
:10003000D123000000000000D3230000D5230000DE
:10004000D7230000D7230000D7230000D7230000C8
:10005000D7230000D7230000D7230000D7230000B8
:10006000D7230000D7230000D7230000D7230000A8
:10007000D7230000D7230000D7230000D723000098
:10008000D7230000D7230000D7230000D723000088
:10009000D7230000D7230000D7230000D723000078
:1000A000D7230000D723000075110000D7230000DC
:1000B000D7230000D723000000000000000000004C
:1000C000D7230000D7230000D7230000D723000048
:1000D000D7230000D7230000D7230000950C000091
:1000E000D7230000D7230000D72300000000000022
:1000F00000000000D72300000000000021190000CC
:1001000000000000000000000000000000000000EF
:1001100000000000000000000000000000000000DF
:1001200000000000000000000000000000000000CF
:1001300000000000000000000000000000000000BF
:1001400000000000000000000000000000000000AF
:10015000000000000000000000000000000000009F
:10016000000000000000000000000000000000008F
:10017000000000000000000000000000000000007F
:10018000000000000000000000000000000000006F
:10019000000000000000000000000000000000005F
:1001A000000000000000000000000000000000004F
:1001B000000000000000000000000000000000003F
:1001C000000000000000000000000000000000002F
:1001D000000000000000000000000000000000001F
:1001E000000000000000000000000000000000000F
:1001F00000000000000000000000000000000000FF
:10020000BFF34F8F0549064BCA6802F4E0621343FF
:10021000CB60BFF34F8F00BFFDE700BF00ED00E0F4
:100220000400FA052DE9F0414FF0102382B0D3F815
:100230000433052B40F0AE804FF080420123136061
:10024000D2F80031002BFBD06D4C6E496E4A6F4BDB
:100250006F48DFF800E2DFF800C26E4F012500268C
:100260004FF00308C1F84055C4F804650421C4F8F0
:1002700008854FF00208C4F810152560C2F8008206
:10028000C2F84055C2F84455C2F80465C2F8085592
:10029000C2F8106515600522C0F814E5C0F810C555
:1002A000C0F80455C3F86C65C3F82475C3F80C2571
:1002B0000D22C3F81415C3F800159D60C3F81C2562
:1002C00001F032FA01F09EF801F05EF901F06EFFE4
:1002D00001F06CF95049284601F0DCFA4F492846F4
:1002E00001F0D8FA4E49284601F0D4FA3046D4F845
:1002F000406501F03BFAD4F840254A49921B284654
:1003000001F0C8FA4649284601F0C4FA4649284691
:1003100001F0C0FA4549284601F0BCFA01F0B0FBF3
:1003200001F078FD01F02AFD41490246284601F01E
:10033000B1FA404AD4F84015D4F840355B1A9342DC
:10034000FAD94FF0805200233B4CD2F804218DF8AB
:1003500007300DF1070001F02BFF9DF80720012069
:10036000214601F097FA9DF80720022AF1D133497E
:10037000012001F08FFA9DF8073003F04603462B69
:100380001FD01AF0CFFC04F0F5FD02F0DBFE02B046
:10039000BDE8F0811B4B0122C3F80425D3F80024EB
:1003A000002AFBD04FF0102005240021154AC0F888
:1003B0000443C3F80415D2F80034002BFBD0FFF738
:1003C0001FFF00F089FB01201D4901F063FA0420A2
:1003D00000F00CFF88B91B49012001F05BFA1A49B3
:1003E000012001F057FA064A1849D2F84005D2F820
:1003F00040351B1A8B42FAD9E1E71549ECE700BFFB
:1004000000A0014000E0014000A0004000200040AA
:1004100000F0014000E0D70104B9010020B901005B
:100420001CB9010040B901005CB9010078B90100B4
:1004300098B901007F841E00B0B90100C4B9010061
:10044000D4B90100ECB9010014BA01003F420F0019
:1004500004BA010040A0014040A100409A4238BFC8
:100460008854704770472DE9F04F87B09846109C2C
:100470000191DDE914539DF8449012990746164600
:100480000CB923F0100313F4806B00D014B313F0F5
:10049000200F14BF4FF0410E4FF0610E20460DF1BA
:1004A000080A0024AEF10A0EB0FBF1FC01FB1C0CA3
:1004B0005FFA8CF2BCF1090F94BF30327244D2B2B1
:1004C00088420AF8012BB0FBF1F204F1010401D3D8
:1004D000102C10D113F0020A1ED103F001023DB11D
:1004E00032B1B9F1000F02D113F00C0F00D0013D71
:1004F0004FF0300C07E01046D6E7102C06D002A8CB
:1005000000F804C001341398A042F6D822B130227A
:10051000AC4201D2102C31D1DA0622D5BBF1000F4A
:1005200031D184B3139AA24201D0AC422BD1621EC6
:1005300028D0102940F08180023C98062ED4102C3F
:100540002ED004F118026A44782102F8101C0134FC
:10055000102C25D004F118026A44302102F8101C36
:100560000134102C1CD0B9F1000F33D004F1180263
:100570006A442D2102F8101C013412E002A8025531
:100580000134C5E714461029D7D00229E0D1102C38
:1005900006D004F118026A446221D6E7102C14D167
:1005A00010249B0736D0B146A1444846A9EB04026B
:1005B000A4BBBAF1000F05D0A9EB06094D4506EB27
:1005C000090032D807B0BDE8F08F04F118026A4480
:1005D0005821BAE7590704D504F118026A442B21BF
:1005E000C8E71A07DDD504F118026A442021C1E7E3
:1005F000019943462020B84709F101094D450BEB0D
:100600000902F5D8A5EB0409A54238BF4FF000094F
:10061000B144C9E7A146A6EB040BEFE7013C02A8F1
:100620000199005D4346B847BFE70246019943463A
:100630002020B84709F10109C0E70229144689D1F1
:10064000A7E700002DE9F04F8DB01F460B1E069363
:10065000A44B169E914614BF83469B4600253878CE
:1006600060B94D4506992CBF09F1FF322A464B4629
:100670000020D84728460DB0BDE8F08F252807F1A7
:10068000010706D02A4606996C1C4B46D8472546DA
:10069000E5E70023394611F8012B2B2A17D00BD898
:1006A000202A17D0232A18D0A2F13000092834D8E4
:1006B0004FF000080A2418E02D2A05D0302AF3D183
:1006C00043F001030F46E5E743F00203FAE743F086
:1006D0000403F7E743F00803F4E743F01003F1E7FE
:1006E00004FB0822A2F130080F46394611F8012B0D
:1006F000A2F130000928F3D93A782E2A56D1797818
:10070000A1F13000092807F1010243F4806344D8C5
:10071000174600244FF00A0C14E02A2A0AD156F892
:10072000048BB8F1000FBCBF43F00203C8F100080E
:100730000F46E1E74FF00008DEE70CFB0422A2F1D0
:1007400030040F46394611F8012BA2F13000092878
:10075000F3D93A4612F8011B6C292ED028D8682903
:1007600032D06A2939D03A46174617F8010B782853
:1007700088D8632834D8622800F04981632800F0C3
:100780009F8025283FF47EAF58287FF47BAF43F04D
:100790002003102223F00C0344E12A2905D156F846
:1007A000044B023724EAE474D3E717460024D0E769
:1007B0007A29D8D143F48073D6E779786C29F9D1B6
:1007C00043F44073BA1CCFE77978682902D043F02C
:1007D0008003C9E743F0C003F4E743F40073C3E7C1
:1007E000A0F164020121D2B201FA02F23E490A40AC
:1007F00019D1732800F0A98070287FF443AF43F02B
:100800002103059308230493102301920394029378
:1008100056F8043B00932A4606994B465846FFF784
:1008200022FE05461BE76F2840F0F3800822B1E75F
:100830007828AED023F010030A22642800F0F2805A
:10084000A8E758060DD53178059300294FEAD173F2
:10085000CDF81080039402920193B8BF49420091F1
:1008600014E0190640F1F180B6F90010ECE7002918
:100870007FF4F5AED80506F1040A10D50593CDF83E
:100880001080039402920191336800932A460699DE
:100890004B465846FFF7E7FD56460546DFE6590644
:1008A00008D5317805930023CDF810800394029287
:1008B0000193D4E7316813F0800F18BF89B2F1E7D4
:1008C00013F002042CD04FF0010A6B1C0793069919
:1008D00016F8040B4B462A46D847002C33D0079A0B
:1008E000544626E0650400002108120006994B4694
:1008F0002020D8470AEB05020AF1010AC245F5D3C8
:10090000B8F1000218BF0122002A08F1FF3308BF26
:10091000002308F1010A1D4408BF4FF0020AD4E782
:10092000A246E7E7551C06994B462020D8470134DC
:100930002A46A045F6D8079AA8EB0A03D04538BF47
:1009400000231A440792079D89E63246002C52F88C
:10095000046B079214BF21464FF0FF3131443246F9
:10096000107808B1914211D1A2EB060A13F480620B
:10097000089202D0A24528BFA24613F002030993B1
:100980001BD1AAEB05032A460B9308E00132E7E7E7
:10099000531C0A9306994B462020D8470A9A0B9B72
:1009A000D3189845F4D8A8EB0A03D04538BF0023E4
:1009B0000AF101021D4403EB020AAB1B0A9304E097
:1009C0001C4606994B462A46D8470A9B9D1916F89D
:1009D000010B28B1089B002BF3D0631E002CEFD134
:1009E000099B93B12A46AAEB050405E0561C06991B
:1009F0004B462020D847324613194345F6D3A8EB7F
:100A00000A03D04538BF00231D44079E27E6022273
:100A1000C0E63FF60DAF692823F010034FF00A023D
:100A20007FF40BAF590548BF23F00103692803F495
:100A3000007102D064287FF41AAF00297FF40FAE52
:100A4000D90506F1040A7FF5FCAE3168FCE600BF6B
:100A50000EB40FB505AA014652F8043B039200926A
:100A600004484FF0FF32FFF7EDFD04B05DF804EBF2
:100A700003B070475D0400000CB41FB506AC0A4615
:100A800054F8043B0094014604480394FFF7DAFD50
:100A900004B0BDE8104002B0704700BF5D04000024
:100AA00007B5009313460A4601460348FFF7CAFDFF
:100AB00003B05DF804FB00BF5D0400004FF08053FD
:100AC000D3F83021082A05D1D3F83401003818BFF3
:100AD000012070470020704708B5454B1A78002A5E
:100AE00075D101221A704FF08042D2F81C31002BD0
:100AF000FBD0FFF7E3FF68B13E4BD3F8001C0322A5
:100B0000002966D149F27531C3F8001CC3F8142DD1
:100B1000C3F8001C4FF08053D3F83031082B0DD1AF
:100B2000344BD3F8001CC022002955D149F275314D
:100B3000C3F8001CC3F8142CC3F8001C2E4B012270
:100B4000C3F80025BFF36F8FBFF34F8FD3F8002496
:100B50001205FBD54FF40062C3F80024BFF36F8F7A
:100B6000BFF34F8F4FF08053D3F83031082B0BD1A8
:100B7000204BD3F8001C91BB49F27532C3F8002C0E
:100B8000C3F8141CC3F8002CFFF798FF58B1194B99
:100B9000D3F8001C39BB49F27532C3F8002CC3F8F6
:100BA000141DC3F8002C4FF08042D2F82431002BE2
:100BB000FBD0114B0122C3F8042502F50002C3F853
:100BC00004230E4B402283F8272380225A60012001
:100BD00008BDC3F8142D9DE7C3F8142CAEE700221E
:100BE000C3F8142CD0E70022C3F8142DDBE700BFB4
:100BF00088A4032000E006400070024000E100E00D
:100C0000014B1878704700BF89A40320204B4FF098
:100C10008052C3F80006C3F80416D2F83021082A1F
:100C200004BF8222C3F81C2C01225A60BFF36F8FCD
:100C3000BFF34F8FD3F80421002AFBD00022C3F862
:100C40000421D3F86824D20744BF0122C3F86824E2
:100C50000F4BD3F80821002AFBD00022C3F808214B
:100C6000D3F82821002AFBD000224FF08051C3F88E
:100C70002821D1F83011082908BFC3F81C2C044BD7
:100C800001221A65BFF36F8FBFF34F8F704700BF0C
:100C90000070024070B594B05C4B00228DF80C20BF
:100CA000D3F8001109B1C3F80021D3F85C212AB3AD
:100CB000D3F884248DF80520D3F880248DF80420FF
:100CC000D3F89414D3F8902442EA0122ADF8082016
:100CD000D3F89C14D3F8982442EA0122ADF80A20F4
:100CE000D3F88C14D3F8882442EA0122ADF8062008
:100CF00001228DF80C200022C3F85C21434C9DF8A2
:100D00000C30D4F86061F6B28DF80D60E3B19DF857
:100D1000043003F07F011B065ED5A9B99DF80530AC
:100D2000062B11D1BDF80640230A022B14D0032B49
:100D300022D0012B08D13649122204A81AF014FD42
:100D4000122104A8FFF762FF324B01A81B689847E5
:100D5000002E52D114B070BDBDF80A402E493B2C74
:100D60004FF03C0204A803D81AF0FEFC2146E8E745
:100D70001AF0FAFC3C21E4E714F0FF0404AD0CD1B6
:100D8000BDF80A402549042C28BF04240422284623
:100D90001AF0EAFC21462846D4E7402228461AF0F9
:100DA00015FD00F0FBF9013C844202D300F0F6F996
:100DB000441E1B4B53F8243003228DF81120013BB5
:100DC000022113F8012F0AB1402902D18DF8101029
:100DD000E1E76A540231F4E70029B5D19DF8053006
:100DE000092BB1D100F0DCF901232365BFF36F8F2C
:100DF000BFF34F8F0B4A1370A6E7044BD3F86C2454
:100E0000002AA7D1C3F86021A4E700BF0070024008
:100E1000A0BA010044F5010064BA010060BA010003
:100E20009000002089A403204FF080530120D3F8C4
:100E30003031082B02BF124B8222C3F81C2C114AFE
:100E40000F4B82F88B0092F88C10C9B2C3F81816B9
:100E5000C3F814269860BFF36F8FBFF34F8F002144
:100E600082F88C104FF08052D2F83021082A06D137
:100E7000D3F80C211AB9D3F80021002AF8D0704712
:100E800000700240000000204FF08053D3F8303152
:100E9000082B134B04BF8222C3F81C2CD3F8A414D4
:100EA000104AC9B282F8891040210A44C3F81817C1
:100EB000C3F814270122DA62BFF36F8FBFF34F8F9D
:100EC0004FF08053D3F83031082B07D1044BD3F8BF
:100ED00034211AB9D3F80021002AF8D0704700BF96
:100EE000007002400000002013B5037A0446BBB135
:100EF0000378A12B0BD14378212B11D1454907222F
:100F000068461AF031FC07216846FFF77FFE237818
:100F1000212B05D16278404B202A4FD0222A6DD058
:100F20003D4BD3F83431A3B13C4A92F8893013B128
:100F3000012382F88730002382F88A304FF08052F4
:100F4000D2F83021082A344A08BFC2F81C3CC2F843
:100F50003431314BD3F80C215AB14FF08052D2F8D2
:100F60003021082A4FF0000208BFC3F81C2CC3F838
:100F70000C21637A03B3284BD3F86C3499030FD553
:100F8000264B93F88720002A3FD193F88820002A27
:100F90003BD1FFF779FF204B4FF40032C3F86C24AC
:100FA0001D4BD3F86C24920706D50222C3F86C249B
:100FB0001A4B002283F88B2002B010BD0722C3F821
:100FC0000427144AC3F800270122DA64BFF36F8FA5
:100FD000BFF34F8FD3F82821002AFBD00022C3F89B
:100FE000282101229A62BFF36F8FBFF34F8FD3F88E
:100FF0003021002AFBD00022C3F8302101221A65DB
:10100000BFF36F8FBFF34F8F8AE7012283F88820E9
:10101000C1E700BF800000200070024000000020F7
:10102000134808B5134BC0F80433FFF72DFFD0F871
:10103000103543F00203C0F81035D0F8143543F0F2
:101040000203C0F814350C4B00224FF40031C0F8F5
:10105000A424C3F80813C3F84421084B4FF080625E
:101060004021C3F8802183F81A131A6008BD00BF1D
:10107000007002400820000100A0014000E100E0F3
:1010800008B5174B8022C3F88420BFF34F8FBFF3FE
:101090006F8F144B93F88720FAB193F88A201A4483
:1010A00092F8400093F88A200132D2B2C0B283F89D
:1010B0008A2093F88A1093F88920914209D300225C
:1010C00083F8872093F8881019B183F88820FFF7F8
:1010D000DBFE034B80225A6008BD4FF0FF30E8E78B
:1010E00000E100E000000020F8B50446FFF788FDAD
:1010F000012835D11C4B93F88B2002F0FF07002A02
:10110000F9D11A4D8026C5F88460BFF34F8FBFF325
:101110006F8F93F88C20D2B24FF400309C5493F828
:101120008C200132D2B283F88C20114AC2F8080315
:10113000D2F8401501F57A71C2F844154FF080617C
:10114000C2F84471C5F8801193F88C303F2B04D954
:10115000FFF76AFE6E602046F8BDC2F80403F9E7A7
:101160004FF0FF30F8E700BF0000002000E100E092
:1011700000A00140074B0022C3F844214FF4003285
:10118000C3F80823044B4FF08062C3F88021FFF7B7
:101190004BBE00BF00A0014000E100E00620704708
:1011A000FFF73EBF70B5084DD5F8406504464FF0D7
:1011B000FF30D5F840359B1BA34201D2431C00D021
:1011C00070BDFFF75DFFF4E700A0014038B503688C
:1011D0008C18A342054607D26FF30F04204604F58E
:1011E000803400F0EBFD2C6038BD00002DE9F04F9D
:1011F000764B012285B080461A60D3F80021002A80
:10120000FBD00025C3F8005101241023039500935F
:101210006FF07F464FF043092F4601944FF0100ABC
:10122000B9F1000F02D04320FFF75EFF6848FFF7D7
:10123000B9FF002810DB042818D011DC012825D0C4
:10124000022846D0DFF88CB15846FFF7ABFF0028E4
:10125000FADA1520FFF748FFBAF1010AE0D1DDE71D
:10126000172803D01828EDD101200CE00620FFF745
:101270003BFF0620FFF738FF0620FFF735FF06206B
:10128000FFF732FF002005B0BDE8F08F4FF0850A70
:10129000DFF850B14FF001098BF80100CA451BDCA3
:1012A0009BF803309BF80220DB43DBB29A4203D168
:1012B000A2421BD03A431CD0DFF818914846FFF7F2
:1012C00071FF0028FADA1520FFF70EFF4FF0000932
:1012D00064E040F2054ADBE73E48FFF763FF002881
:1012E00009F10109E8DB0BF80900D7E7002F6AD103
:1012F000ECB9394B1A4613F8011B0029FAD102F157
:101300000A00194601330C78202C01D08342F8D111
:1013100000260E700A2312F8014F002C4ED12F49DF
:101320003246012000F0B6FA4FF0050A4327A6EB3B
:101330000509AAF1050AD145A8BFD146A30608D1DF
:1013400064236B43264993FBF6F32A46012000F001
:10135000A1FAB9F1000F0EDD41464A4603A8FFF796
:1013600035FF09F1030240461B4922F0030200F059
:101370000BFDC8444D44019B0134E4B22BB142F251
:101380001070FFF70FFF0130F9D10620FFF7ACFE18
:10139000112300930023B94601930127009B013BD1
:1013A00000937FF43BAF1820FFF79EFE1820FFF755
:1013B0009BFE1820FFF798FE032064E703FB06441A
:1013C000A4F13006A7E70027B1E700BF0090024074
:1013D000C0C62D0040420F00CCE80120F6BA010043
:1013E00007BB0100C8E80120054A4FF47A73D2F820
:1013F00040155843D2F840355B1A8342FAD3704700
:1014000000A001400E4B4FF00042C3F810250E2201
:10141000C3F808250F22C3F80C254FF0A052C3F8DB
:1014200024250622C3F8542501210022C3F864258F
:10143000C3F85015C3F840250722C3F800257047AC
:1014400000F0024082B00B4B8DF807000DF107024F
:10145000C3F844250022C3F838250122C3F84825E3
:101460001A61D3F81821002AFBD00022C3F81821F2
:1014700002B0704700F0024070B54FF0A0444FF446
:1014800000534FF48056C4F80C350546C4F80C657B
:1014900000BF0120FFF7A8FF2846FFF7D3FFC4F8DD
:1014A0000C6570BD70B54FF0A0444FF400534FF47D
:1014B0008056C4F808350546C4F80C650120FFF7CE
:1014C00093FF2846FFF7BEFFC4F80C6570BD2DE9F9
:1014D000F843044614F8015B0DB9BDE8F8832646CD
:1014E00016F8020BFFF7C8FF94F8018008F07F0799
:1014F0003C46B146013CE4B2FF2C0FD118F0800FFE
:1015000006EB070407D0F05DFF2808BF4FF4FA7020
:101510000134FFF769FF013DEDB2DDE719F8010B7A
:10152000FFF7C0FFE6E7000038B54FF0A043154CC9
:1015300040F20132C3F83C27C3F83827C3F83427F8
:10154000C3F83027C4F80C27C4F814274FF480528E
:10155000C3F80C2508254FF40052C3F808253220A3
:10156000C4F80855FFF740FF3220C4F80C55FFF7C8
:101570003BFFC4F808553220FFF736FF2023C4F89C
:10158000083538BD0003005000B59BB006496722FE
:1015900068461AF0E9F8FFF7C7FF6846FFF797FFBC
:1015A0001BB05DF804FB00BF5BF5010010B50F48F0
:1015B000FFF78DFF4FF0A0440A20FFF715FF4FF40F
:1015C0000053C4F808350A20FFF70EFF4FF480538C
:1015D000C4F80C350A20FFF707FF00BF044B202298
:1015E00083F82F234FF400425A6010BD4CF50100E0
:1015F00000E100E00000000000000000000000002A
:10160000F0B5474D05F5E036002196F80436D6F8DA
:1016100008262F6805EB43230433102408468C4624
:101620008E4600BFAFF30080AFF30080AFF30080C1
:101630001178507892F802C092F803E037F8111050
:1016400037F8100037F81CC037F81EE041EA0041B7
:10165000C3F800104CEA0E4CC3F804C0117950795D
:1016600092F806C092F807E037F8111037F810002A
:1016700037F81CC037F81EE041EA0041C3F80810F3
:101680004CEA0E4CC3F80CC0117A507A92F80AC09A
:1016900092F80BE037F8111037F8100037F81CC03B
:1016A00037F81EE041EA0041C3F810104CEA0E4C36
:1016B000C3F814C0117B507B92F80EC092F80FE073
:1016C00037F8111037F8100037F81CC037F81EE053
:1016D00041EA0041C3F818104CEA0E4CC3F81CC094
:1016E00003F1200302F11002013CA1D196F80C365F
:1016F0000C49C6F808260133DBB286F80C3696F89A
:10170000043605EB4325C3F1010386F8043604359E
:101710004FF40073C1F84835C1F84455F0BD00BF1F
:10172000B822002000F0024008B50B4B0B4A1846C7
:1017300000211AF04BF80A4A026000F5E033082253
:1017400083F80E26E22283F80C26064B01221A703B
:10175000054B00221A7008BDB822002010C60100F7
:10176000C2F90100A80000208BA4032038B5114B5A
:1017700003F5E03292F80F1601F0FF040029F9D1C9
:101780004FF4614101FB003303F20443012582F869
:101790000F56C2F8083682F80C46FFF731FF064BA9
:1017A000064AC3F84C41C3F81841C3F804231D612D
:1017B00038BD00BFB822002000F002404000080001
:1017C000EF2830B514D8EF2912D80A4B03F5E034CE
:1017D00094F80E56082D0BD1F02594F80D46694368
:1017E0004FF4614505FB04110B44184480F80424B0
:1017F00030BD00BFB82200202DE9F74F134DDFF8B0
:1018000050A0DFF850B000F07F000F46904605EB87
:10181000C005002415F8019B002608EB040119F00F
:10182000010F14BF9BF800209AF800200191B8190D
:101830000136FFF7C5FF082E01994FEA5909EED18D
:101840000134082CE6D103B0BDE8F08FC2F50100E9
:101850008BA40320A8000020F0B589B004460E46F2
:1018600068461F21FFF71CF9EF2C10DC6D4604F1D0
:10187000F80715F8010B43B2002B08DD214632466C
:101880000834FFF7B9FFBC4201D0EF2CF1DD09B0FD
:10189000F0BD00000EB433B51D4A13781D2B05466C
:1018A00013D8D9000133137006AB059A01930020B9
:1018B000FFF7D2FF25B1174B93F80D06FFF756FF40
:1018C00002B0BDE8304003B07047134800F5E03384
:1018D0004DF6801493F80D264FF461435A4302F2FB
:1018E0000443034402F6843101442246184619F0A9
:1018F0003BFF0A490978034602194FF00130414382
:1019000003F5614342F8041B9342FBD1E821CBE786
:101910008AA40320B8E20120B82200208BA403206F
:10192000544BD3F84C212DE9F0437AB152490020B1
:1019300001F5E032C3F84C0192F80C06E02817D903
:1019400092F80C360133DBB282F80C36494BD3F8EF
:1019500018215AB1494A0021C3F8181192F80C060F
:10196000E12896BF012282F80F161A61BDE8F083C4
:1019700092F804860E6801EB482700200437D2F85D
:1019800008161025844686460446B946AFF3008003
:10199000087891F801C091F802E0CC7836F8100090
:1019A00036F81CC036F81EE036F8144040EA0C4009
:1019B000C9F800004EEA044EC9F804E0087991F82D
:1019C00005C091F806E0CC7936F8100036F81CC056
:1019D00036F81EE036F8144040EA0C40C9F808001A
:1019E0004EEA044EC9F80CE0087A91F809C091F863
:1019F0000AE0CC7A36F8100036F81CC036F81EE043
:101A000036F8144040EA0C40C9F810004EEA044E83
:101A1000C9F814E0087B91F80DC091F80EE0CC7B7A
:101A200036F8100036F81CC036F81EE036F81440C0
:101A300040EA0C40C9F818004EEA044EC9F81CE010
:101A400009F1200901F11001013DA1D1C2F80816E8
:101A500092F80C160131C8F10108C9B282F8048667
:101A600082F80C164FF40072C3F84825C3F8447589
:101A70006CE700BF00F00240B8220020B8E201206D
:101A80002C48DFF8C4C04FF0A0432DE9F04340F2EA
:101A900001354FF00309C3F868570122C0F80895D3
:101AA000254B264CDFF8A480DFF8A4E0244E00216B
:101AB00002274FF40069C0F80072C0F81015C0F892
:101AC0000425C0F8449502601A20C4F81089C4F8AF
:101AD00018E5C4F81CC5C4F80475C3F860054FF4D4
:101AE000B570C3F800254FF48065C3F80425C3F82A
:101AF0000C15C3F808050420C3F81425C3F8101505
:101B0000C3F82065C3F82455C3F82825C3F82C155D
:101B1000C3F84065C3F84455C3F84825C3F84C15CD
:101B2000C3F800029A600748BDE8F043302219F07C
:101B30004DBE00BF0090004000C0014000F00140D9
:101B4000BCA403208CA403200890004040900040D7
:101B500018C10140094B4FF0B51103F5006243F87D
:101B6000041B9342FBD1064B00229A805A811A82B1
:101B7000DA829A835A841A85DA857047BCA40320D6
:101B80008CA403204E4BD3F840252DE9F04F52088A
:101B900002F16406013AC6F30906C2F3090296424D
:101BA000ADF5697D09D047493346B524581C21F865
:101BB0001340C0F309039342F8D1434CDFF810817E
:101BC00004F1300594F90530002B6BD02379002BFC
:101BD00068D0D8F80020D26A52F823707B1C61D0FC
:101BE000384618F097F900F09053B3F1905F8146B2
:101BF00058D1384618F04CF9228863884FF6FF71A7
:101C00008A42844605D0B21AC2F3090213449BB239
:101C10006380ACEB030CBCF1000F268049DDBCF502
:101C2000677FA8BF4FF4677C284A0CF103014B443F
:101C300021F00301C2F80C15C2F8043501A90023F4
:101C4000C2F80815C2F8003101235360D2F8003100
:101C5000002BFBD0B444CCF3090C00236645C2F83A
:101C600000311FD0DFF85C9094F905A08E46324613
:101C70004FF0B50B49461EF8013B31F81200803B8E
:101C800003FB0AF30BFB03F3002BBCBF03F57F53ED
:101C90003F33571C00EBA33029F81200C7F30902A9
:101CA0006245E8D10634A5428CD10DF5697DBDE8C9
:101CB000F08F0023237163710634A54282D1F4E7CB
:101CC00000900040BCA403208CA40320009002409C
:101CD000D0F6032084B00E4B8DF807000DF10F02F3
:101CE000C3F834250DF10702C3F844250122C3F8D7
:101CF0003825C3F848251A61D3F81821002AFBD0EB
:101D00000022C3F818219DF80F0004B0704700BFEF
:101D1000003000404FF0A04307B54FF48072C3F885
:101D20000C250520FFF7D6FF8DF80700FF20FFF7F1
:101D3000D1FF8DF807009DF80730DB07F6D44FF090
:101D4000A0434FF48072C3F8082503B05DF804FB8C
:101D5000094B002243F20520C3F83826C3F83406A5
:101D6000D3F800110029FBD0C3F80021D3F83816AE
:101D7000C907F1D4704700BF00900240014B1868BA
:101D8000704700BFBCAC03200B4B10B40024C3F859
:101D90000041C3F818250122C3F81415C3F8100533
:101DA0009A60D3F80021002AFBD000225DF8044B92
:101DB000C3F80021FFF7CCBF00900240094B00227E
:101DC000C3F800210122C3F82025C3F81C05DA60FE
:101DD000D3F80021002AFBD00022C3F80021FFF72E
:101DE000B7BF00BF00900240094B0022C3F800219A
:101DF000C3F820250122C3F81C05DA60D3F80021BE
:101E0000002AFBD00022C3F80021FFF7A1BF00BFCA
:101E10000090024070B56349634E272386B00620C8
:101E2000C1F808351F23C1F81005C1F80C354FF073
:101E30000043C1F82435012400250723C1F840459B
:101E4000C1F85055C1F800354FF0A04340F20132BF
:101E5000C3F82027C6F81C274FF44372C3F80C2799
:101E6000C3F86827C3F87C27C3F818274FF08062AF
:101E7000C3F808250822C3F80825902200924FF4E1
:101E80008072ADF80450C3F80C2502ABC1F83435AC
:101E9000C1F844D5C1F83805C1F848050C61D1F83E
:101EA0001831002BFBD04FF0A0444FF48075002672
:101EB000C1F81861C4F808559DF80D20C4F80855FC
:101EC000153A4FF480039340384A50201360C4F809
:101ED0000C55FFF7FFFEC4F808553120C4F80C5527
:101EE000FFF7F8FE0220FFF7F5FEC4F80855FFF7EC
:101EF00011FFC4F80C553520FFF7ECFE3046FFF714
:101F0000E9FEC4F808555020C4F80C55FFF7E2FE6E
:101F1000C4F808551120C4F80C55FFF7DBFE304615
:101F2000FFF7D8FEC4F80855FFF7F4FE01234B6114
:101F30001C4BD3F80421002AFBD00022C3F8042153
:101F4000C3F800251A4B0821C3F828152721C3F828
:101F500024151F21C3F830150621C3F834151A21A2
:101F6000C3F838150321C3F83C154FF09051C3F85E
:101F700040151421C3F844154FF48071C3F80026AE
:101F8000C3F840160121C3F80015C3F800211960F9
:101F9000D3F80021002AFBD00022C3F8002106B0AC
:101FA00070BD00BF0030004000030050BCAC0320F7
:101FB0000090024070B54FF0402500244FF40076A9
:101FC000C5F80441C5F80062104D2870284600F895
:101FD000011F21468B4213DC4FF040220233C2F82E
:101FE0004455C2F848350023C2F8383501239360C0
:101FF000D2F80431002BFBD00023C2F8043170BDAD
:10200000545C00F8014F0131E4E700BFC0AC03208D
:1020100070B59DF810500024E6B2B54214D80C4CAF
:102020004FF04023617002212070C3F84815C3F8B7
:102030003855C3F84445C3F834254FF48452C3F8E7
:10204000002201229A6070BD165D1E550134E3E73F
:10205000C0AC03202DE9F04186B002232E4C2F4A5C
:102060000093054603AB15210920FFF7D1FFD4F8F3
:102070004025D4F840359B1AB3F5FA7FF9D30223F3
:10208000274A0093162104AB0920FFF7C1FFD4F8BB
:1020900040252149D1F840359B1AB3F5FA7FF9D391
:1020A000BDF80C30BDF810205BBA52BA9BB292B2A8
:1020B00052EA03042CD040F2CD14A24240F232275F
:1020C0008CBF4FF000084FF00108BA4294BF0026C1
:1020D0000126BB4294BF00270127A3428CBF0024E6
:1020E00001240421012005AB0E4A0091FFF790FF67
:1020F0009DF81730DB4303F066031C4344EAC81421
:1021000044EA061444EAC7042C7006B0BDE8F08126
:1021100027462646A046E4E700A00140CCAC0320B9
:10212000CAAC0320C6AC03204FF0A04337B54FF430
:10213000C062C3F86427C3F860274FF04023192218
:10214000C3F808251822C3F80C255022C3F88825A7
:10215000154D4FF080620124C3F824250622C3F8F0
:1021600050452046C3F840450321C3F800252A46C0
:102170000423FFF71FFF2A46204604230B21FFF705
:1021800019FF2A46204604230521FFF713FF0423E5
:102190002A4608212046FFF70DFF0DF10700FFF743
:1021A00059FF03B030BD00BFCAF90100FFF7BCBF43
:1021B000FFF750BF4FF08053D3F83021082A03BFF8
:1021C000D3F83401B0FA80F04009002070470000D5
:1021D00008B54FF08053D3F83021082A4ED14FF084
:1021E00080420021C2F80C11C2F81011C2F8381553
:1021F00002F54042D3F80414C2F82015D3F80814AD
:10220000C2F82415D3F80C14C2F82815D3F810140A
:10221000C2F82C15D3F81414C2F83015D3F81814DA
:10222000C2F83415D3F81C14C2F84015D3F82014A2
:10223000C2F84415D3F82414C2F84815D3F828146A
:10224000C2F84C15D3F82C14C2F85015D3F830143A
:10225000C2F85415D3F83414C2F86015D3F8381402
:10226000C2F86415D3F83C14C2F86815D3F84014CA
:10227000C2F86C15D3F84434C2F87035FFF79AFFF2
:1022800018B1384B384AC3F88C26FFF793FF18B1C2
:10229000364BFB22C3F81825FFF78CFF58B14FF0DF
:1022A00080424FF08051D2F8E43ED1F8581261F3E9
:1022B0000303C2F8E43EFFF77DFF20B12C4B4FF43F
:1022C0000072C3F840264FF08053D3F83031082B0A
:1022D00009D14FF08043D3F80024D20744BF6FF0F8
:1022E0000102C3F80024234AD2F8883043F4700373
:1022F000C2F88830BFF34F8FBFF36F8F4FF01023BA
:10230000D3F80C32DB0728D51B4B0122C3F8042578
:10231000D3F80024002AFBD04FF01022D2F80C3260
:1023200023F00103C2F80C32134BD3F80024002A27
:10233000FBD00022C3F80425D3F80024002AFBD0E8
:10234000BFF34F8F0B490D4BCA6802F4E062134391
:10235000CB60BFF34F8F00BFFDE7094B094A1A60FE
:1023600008BD00BF005000404881030000F000405D
:102370000090024000ED00E000E001400400FA059A
:10238000AC0000200090D0030A490B4A0B4B9B1A6B
:1023900003DD043BC858D050FBDC0849084A002044
:1023A000521A02DD043A8850FCDCFFF711FFFDF7FA
:1023B00039FF0000ECE103000000002088A40320A6
:1023C00008F70320FEE7FEE7FEE7FEE7FEE7FEE78D
:1023D000FEE7FEE7FEE7FEE70A4610490B68013319
:1023E00010B50B6080EAE07182EAE273A1EBE07164
:1023F000A3EBE273B3EB913F044605D854406FF072
:10240000004080EAE47010BDC1170904D31741EA07
:102410001441000418F020FFF5E700BFD0AC032002
:102420001C4B1B68D3E9021251EA020030B506D0FA
:10243000187920F0080018716FF0004018641869CE
:102440001C6A014458691961024404EBD47001EB21
:1024500060014510186B5A61814202DD401B186112
:1024600002E0986A8142F9DB586A00EBD07102EB16
:1024700061024D10596B8A4202DD491B596102E02D
:10248000D96A8A42F9DB1A6922449A615A6902447C
:10249000DA6130BDDCAC0320174B2DE9F0411C683C
:1024A000236A2269D4F84C80666903EBD37302EB8C
:1024B0006307636A414603EBD3734FF4700006EB86
:1024C000630612F095F84146054620624FF450002D
:1024D00012F08EF805EBD573A7EB630700EBD07312
:1024E000A6EB630360623D44184427616361A56104
:1024F000E061BDE8F08100BFDCAC03202DE9F74FBF
:102500000F4601680C9DA1EB23194FEA231A144BC7
:10251000D40C1B6853F824B006465946484612F0BE
:1025200067F83A6801902D11A2EB05080D4A404664
:1025300052F82410009112F05BF8019B00991C1ACC
:10254000484612F055F859460544404612F050F8F6
:10255000544405443D60346003B0BDE8F08F00BFD3
:10256000A4F90200A8F90200904B2DE9F04F1B6876
:102570004668F7298946D96908BF4FF000098E429D
:1025800087B007467DDC5A699642ACBF0022012223
:102590004FEA820CD7F80CB0594575DB59698B4569
:1025A000ACBF0021012189001CEA010F40F0C98065
:1025B0003868D3F81080404568DA4CF0010CBA68EE
:1025C000904569DD41F001011CEA010F019240F0E4
:1025D000B880D3F848A000935146A0EB080012F051
:1025E00007F8009B5B69009307145146F01A0297A5
:1025F00011F0FEFF019A0614C6F1D006A2EB080006
:102600005146039611F0F4FF009B4FEA20485146D3
:10261000ABEB0300CDF8108011F0EAFF0014C0F11D
:10262000D000002E05903DDBCF2ED4BF0023012328
:102630009B00002F38DA43F00103002839DBCF2854
:10264000D4BF002201229200B8F1000F33DA42F029
:10265000010213EA020174D18E4653EA020C30D112
:10266000BEF1000F00F09D80029721B1CDE90480FA
:10267000BEF1000F00D00396494602A817F03CF8BF
:102680005FE04FF0080C85E708218DE79A699042DA
:10269000C8BF4CF0020C92E79F69BA42C8BF41F034
:1026A000020191E70823C4E7EF2FC8BF43F00203FC
:1026B000C3E70822C8E7B8F1EF0FC8BF42F0020233
:1026C000C7E7002B14BF9C4694461CF0080F0AD0A5
:1026D000A8EB0704351A744394FBF5F400253C4439
:1026E000634548D11EE01CF0040F0AD0A6F1D005C6
:1026F000A8EB07046C43351A94FBF5F4CF253C4452
:10270000EEE71CF0020A1FD0C7F1EF04851B6543FA
:10271000A8EB070495FBF4F5EF243544634528D175
:10272000002D1DDBCF2DD4BF002301239B002E469F
:102730002746002C18DA43F001034FF0010E134234
:102740008BD007B0BDE8F08FBCF1000FE6D0351A92
:10275000A8EB07047D4395FBF4F554463544DDE7CB
:102760002E4627460823E4E7EF2CE6DD43F002037C
:10277000E3E7002D0CDBCF2DD4BF00220122920015
:102780002846A046002C07DA42F001020121D6E7D4
:102790002846A0460822F5E7EF2CF7DD42F00202BA
:1027A000F4E700297FF462AF66E700BFDCAC0320EA
:1027B00010B5064C0648236800221A7116F094F8EA
:1027C0002368012283F8522010BD00BFDCAC032037
:1027D000E0F901002DE9F041504C236893F85230A4
:1027E0000BB9FFF7E5FF2468002394F8BA8184F859
:1027F000523094F8503094F8B971434503D194F8AD
:102800005130BB4243D06FF00043C4E90A33023376
:10281000C4E90C33B4F994C300256545A26A216B61
:10282000636BE06A62DB12111B11001109111E1AA1
:10283000A26263632163E062891A4FF47000FFF7BC
:10284000CBFD314605464FF45000FFF7C5FD344A35
:102850001368854203F10103A8BF054613604FF4D6
:10286000D003E3634BF23331A5632846FFF7B4FD91
:10287000B0F5D00FD4BF01462946A1644FF4803093
:10288000FFF7AAFD84F85080E06484F85170237942
:10289000E66C43F0010323716FF0004323640023CF
:1028A000C4E9023331464FF4700011F0A1FE314605
:1028B000206205464FF4500011F09AFED4F8E8303B
:1028C00060621A6A5B6A05EBD57500EBD0706D101B
:1028D0004010C5EB2215C0EB231060612561FFF7A6
:1028E0009FFDBDE8F0410F4815F0FEBFD4F88463AA
:1028F00006EBC50E56F83560964207DAA662DEF89A
:102900000420824206DAE262013586E78E42C8BFC1
:102910002663F4E79A42C8BF6263F5E7DCAC0320A4
:10292000D0AC0320D0F9010010B5574B02781C68D9
:102930002379D9070BD4002A40F08580534B426895
:102940001B689A427FD1FFF745FF01207CE0002AF7
:102950006ED14F4942680968914208D11A0772D472
:10296000E16C4FF4802011F043FEA060EDE749498F
:102970000968914208D11B0765D4E16C4FF48020AF
:1029800011F036FE4042F0E743490968914208D110
:10299000180758D4E16C4FF4802011F029FEE06054
:1029A000D3E73E490968914208D119074BD4E16C3D
:1029B0004FF4802011F01CFE4042F0E733490968D3
:1029C000914208D19A0702D5FFF7F2FEBDE743F026
:1029D0000E032371B9E732490968914214D1314994
:1029E0000968214491F8BC1171B16FF0004283F085
:1029F000080322642C4A237113F0080F2B4B18BFD5
:102A00001346C4F86031A0E7294B1B68934206D1F6
:102A10004FF6FA23636503F62423A36595E7254B58
:102A20001B6893420FD1244B63654FF6FA23F4E7FA
:102A3000012A08D1164942680968914205D113F06C
:102A4000080308BFA360002010BD12490968914225
:102A5000F5D011490968914204D113F00803F2D16D
:102A6000E360F0E70D4909689142F6D0104B1B680E
:102A7000934203D00F4B1B689342E4D14FF4803351
:102A80006365A365DFE700BFDCAC032060FD0100E8
:102A900070FD01006CFD010068FD010064FD010096
:102AA0005CFD01007CFD010015BB010024BB0100A1
:102AB00054FD010058FD01001E0501002DE9F84FED
:102AC000324B1C682379DA075ED51B0735D5D4F85D
:102AD000E830D3F820805F6A236C434502D1636CF1
:102AE000BB422AD0D4F848B0DFF8A49059464FEA48
:102AF000281011F07DFDD4F84CA000EA09005146E1
:102B000011F076FD256A05EBD573A0EB63065946F7
:102B10002661381111F06CFD514600EA090011F0F0
:102B200067FD636A03EBD372A0EB6200C4E9108710
:102B3000354403446061A561E361A36DB3F5803F53
:102B40001AD0616DA06C11F053FD01460546A064DA
:102B50004FF48030FFF740FCA16BE0648D4206DA51
:102B6000A1644FF48030FFF737FCE06402E0E16BD2
:102B70008D42F5DCFFF790FCA3680BB9E3681BB14D
:102B8000BDE8F84FFFF74CBCBDE8F88FDCAC032084
:102B90000000FFFF2DE9F04FA34D2B681979C807FE
:102BA0008BB040F18A8011F0020106D1F723009327
:102BB000F022D023084616F069FD29680B79DA0661
:102BC00032D50E69D1F8CC33F31AC3F31204002CBA
:102BD00076D05B42C3F3120358BF5C42C4F50024B5
:102BE00034440B6A4A6907921E444B6A13440993A2
:102BF000A64267DC29684D69D1F8D033EB1AC3F3DC
:102C00001204002C67D05B42C3F3120358BF5C422E
:102C1000C4F500242C444B6A0A6906921D440B6AD1
:102C200013440893A54258DC4FF000087E4B1E6801
:102C3000B6F99E333179984558DBD6F8E8307B4CAD
:102C40001F6A5E6A4A0758BFDD6B4FEA27174FEAD3
:102C5000261648BF4FF0804504F170094FF0000878
:102C600023680693636807933DB1CDF80080002385
:102C70002A4607A906A8FFF741FC069B3B4406939A
:102C8000079B33440793A3680893E36809933DB116
:102C9000CDF8008000232A4609A908A8FFF72EFCDA
:102CA000089B3B440893099BD021334406A8103469
:102CB0000993FFF759FCA145D2D10BB0BDE8F08FC5
:102CC00034468EE7682106A806940894FFF74CFC6A
:102CD00004F500248CE72C469DE7682106A807949C
:102CE0000994FFF741FC04F500249BE73823D6F84C
:102CF000A023D6F88C9303FB08F3D718D358F88B8E
:102D00001B1106937B681B110793BB681B1108936B
:102D1000FB684FF6FF721B1190420993D6F8A83357
:102D200067D00C2202FB00302C25827AC07A42EA5E
:102D3000002212B202FB0595BA8BD6F8A4A30C2090
:102D400000FB02339A7ADB7A42EA03231BB2039335
:102D50003B690AEB83039C78DB7803F00F0344EABA
:102D600003244B0717D5D6F8E810CA6BD1F824B066
:102D70000B6ACDF800B0C2F1804207A906A80593FE
:102D80000492FFF7BBFB059B049ACDF800B009A99C
:102D900008A8FFF7B3FB0AEB880A9AF80330C3F3DD
:102DA0000213032B72D93B8E1E063AD4039A2C26AB
:102DB00012FB06F6980609EB060770D4222C1AD8E7
:102DC000192C0ED904F6E672C2F30B0201239340CC
:102DD00013F0840F21D113F4817F1CD113F0410F24
:102DE00011D12DBB38460CF027FE002859D0FC210C
:102DF00014E00025A0E7872C07D8852C0DD8632C7C
:102E000001D0852CEDD1CC2108E004F67873C3F312
:102E10000B03012BE5D8E72100E0AF2106A8FFF75F
:102E2000A3FB08F1010801E7DCAC0320F0F9010085
:102E3000272C07D0612C05D004F68374C4F30B044F
:102E4000012C01D87721E9E7D5E900239A4204D083
:102E500059F806207B689A4201D1D021DEE7384636
:102E60000CF0EAFD0028C2D128460CF0E5FD002850
:102E7000BDD12A6859F806309A4201D03721CDE7F2
:102E80006A687B689A42CCD0D721C7E7B6F91E3171
:102E9000002BC6D03B8E1906C3D46821BEE7002D97
:102EA000A0D01721BAE700BF024B1B68012283F8AC
:102EB000D9217047DCAC032038B50E4D02F092FAF0
:102EC0002B689C6E9866041B04B938BD02F0BCFAEE
:102ED0002868436ED0F8A4219B1A032B04F1FF3419
:102EE000F3DC5C3001F072F92A68536E01335366EB
:102EF000EAE700BFDCAC032070B502F073FA144DB2
:102F00000646FFF7D9FF2B685C6ED3F8A431E41AAC
:102F1000002C08DC02F066FA831B0A2BF1D9BDE80D
:102F2000704002F0EBBF2B6893F87E300BB100F0DD
:102F3000CBF802F0E3FF01F051FF2A68D2F8A43188
:102F4000013C03F10103C2F8A431ECD170BD00BF14
:102F5000DCAC032070B50C4C04F5E0364FF4614551
:102F600096F80D3605FB034303F5474343F804D9B0
:102F70009D46FFF7C1FF96F80D3605FB034404F5A7
:102F80004744D4F800D070BDB822002038B50446BC
:102F90001D2015F0F5F9064B1D6840F21A43A5F8FF
:102FA0006C30204616F044FFA5F86E0038BD00BF17
:102FB000DCAC032070B5F8B002F014FA124C461ED7
:102FC000684601F00BF894F80D36C3F1010384F85C
:102FD0000D3602F007FA0546801BFAD0694601F06B
:102FE0002DF8C6B202F0BAFA94F80F36002BFBD1D6
:102FF00094F80D36C3F1010384F80D360EB178B0A4
:1030000070BD2E46E5E700BFB8E2012038B5054D9A
:103010000C460A46296818F0A7FB2B6823442B604E
:1030200038BD00BF1CE6032010B50446422015F051
:10303000A7F9204616F0FCFE024B1B68A3F86E00B1
:1030400010BD00BFDCAC032038B5124D2B68D3F89F
:10305000A431022B04461CDD02F034FEC8B92B68F3
:1030600093F8B73123B12046BDE8384001F06EB97E
:10307000204602F049FC60B9204602F08FF940B9C1
:10308000204615F031FC20B92046FFF74DFC002802
:10309000E9D038BDDCAC0320024B1B68012283F869
:1030A0007E207047DCAC0320064B1A68B2F86C3007
:1030B000013B1BB2002BA2F86C3001DAFFF7ECBF2A
:1030C000704700BFDCAC0320164B17481A6810B4D9
:1030D000002382F8EC3082F8D53182F8D73182F8BB
:1030E0007E3040F28113A2F86C304FF44073A2F8A6
:1030F000B63192F87C3092F881100133DBB201EBEB
:10310000830450F83440002C08BF002382F87C3040
:1031100001EB830300EBC3025DF8044B50F833303E
:1031200050681847DCAC032038FB0100044B1B68D7
:10313000002283F8B621FF2283F87C20FFF7ACBF82
:10314000DCAC03202DE980484E4D4F4C2B6889B0F4
:10315000002B00F0C9804D4B1B68002B00F0C48091
:10316000DFF838A1042104A8CAF80030FFF74EFFA9
:103170002E682768CAF800600C2105A8FFF746FFF3
:103180004349042205A818F0D4F90546002840F068
:10319000D681DDF818B03F4B4FEA0B1902460121EA
:1031A000484617F0F1FD079B49461E44CAF80060E7
:1031B0008046FFF72BFF0BF1FF3308EB0901039368
:1031C0002E46AB46A946AA4643F24C1C039B01334C
:1031D00018D1404617F052FE042387F88130BBF126
:1031E0001D0F4FF0000387F8DC3140F3AE81012E54
:1031F0004FF00203D4BF0026012687F8813087F8FC
:10320000DC6163E051F8080C234B00F0FF1E9E4583
:10321000A1F1100219D111F804ECBEF1000F14D184
:1032200011F8071C3139032905D8DFE801F00B0933
:1032300009020AF1010A039B013B03931146C5E70A
:103240000135F8E709F10109F5E7B2F808E044F2C1
:103250004D139E4524D111F806ECBEF1500F1FD13D
:1032600011F803ECBEF1000F1AD111F8050C332848
:103270000BF1010BDFD111F8041C31390129DAD827
:103280000136D8E7B4000020DCAC0320B0000020F9
:1032900034BB010039BB010045004D001CE6032092
:1032A000C44B984240F0348190896045C3D111F8F5
:1032B000021C0029BFD12268022387F8813082F8DE
:1032C000823082F88130404617F0D8FD226892F8AB
:1032D0008130022B00F0498140F24981033B18BF45
:1032E00001239B0082F8823001F058FBFFF7DCFDE0
:1032F00016F0A6FD14F088FD03F0A2F816F022FFE8
:103300000BF0CEFF02F084F82368AB4F03F5405377
:10331000002593F8391893F8380814F09FFF01F04E
:1033200069FF15F0D3FE01F0C9FA236803F5405197
:10333000FF2281F83B2883F88050FFF7F7FEB1F9B0
:103340002E089E4B2A460121C00017F01DFD06469F
:10335000236803F54053B3F92E188D42C0F209815A
:10336000974D0022C900012330462F6816F04EFB0E
:10337000F863304617F082FD16F014FC914A28607D
:103380009149D2F84005D2F840351B1A8B42FAD940
:1033900023688E4E012283F8802006F5E039DFF89D
:1033A00050A2FEF7EFFB8A4A0023CAF800301360F0
:1033B000236893F87D30002B00F0E68002F044F89B
:1033C00020685C3000F002FF236893F87E300BB178
:1033D000FFF77AFE02F092FD01F000FD2368D3F8BA
:1033E000A4210132C3F8A4215A6E01325A6623681F
:1033F000D3F8E80008B115F039F802F093F8002886
:103400005DD0236893F8B78193F97A70B84501D0FD
:1034100000F0D4FD226899F80D366E4D4FF46141ED
:1034200001FB036302F5405103F20443C1F8DC37AA
:1034300069490B60CF232B80684B0021198092F8DB
:10344000B731002B00F0D68092F97B0008B916F056
:1034500019F9226892F8B731022B00F09880032BFB
:1034600000F09880012B01D117F06AFB236893F9D3
:10347000B72183F87A2083F87B2093F8D531ABB15C
:10348000574816F0D5FC14F015FD0546544816F0C3
:10349000CFFCC5F5A0720346042102EBD2700622D0
:1034A000009201910022401016F0DCF802F030FF8B
:1034B000FFF702FDB84540F0BE8002F04FF82368E8
:1034C00093F88020002A3FF46CAF5A6F01325A679C
:1034D00001F082FF22684349136FC31A8B427FF6C3
:1034E0005EAF516F404D694307EE901AB8EE677AB0
:1034F00007EE903AF8EE677AC7EE276AFDEEE66AC5
:1035000016EE903AA2F878300023C2E91C0346E791
:10351000364B98427FF48FAE908960457FF48BAE36
:1035200011F8021C00297FF486AE236802220321D1
:1035300087F8812083F8821083F88120C3E6002673
:10354000B346B1463546B24646E6BAF1080F03DD4A
:10355000032387F88130B9E6112D01DD0123F8E757
:10356000B9F1080F7FF7B2AEF3E70123BAE6002303
:10357000B8E6284616F0CEFC0821386006EBC500F8
:10358000FFF744FD0135E3E6FFF7E4FC2FE700F029
:1035900011FC6BE7B2F96E30002B3FF467AF0620E9
:1035A0000422CDE9000200221146104616F05AF816
:1035B0005CE700BF4D5552411CE6032054BB01009F
:1035C000D0F6032000A001409F860100B822002011
:1035D000C0F60320AAED032074EB0320ACED03201A
:1035E0007EBB01003F420F00809698005746414C39
:1035F000D0AC0320D2F8A411D2F8A83199423FF4FC
:1036000035AF01F07DFE2068037903F00303012B41
:1036100002D0E83013F0CCF923681B79DB0701D521
:10362000FFF7B8FA01F07CFEEF23002101202B8088
:1036300015F096FA1AE700F0C9FCFFF7BBFC3EE76D
:10364000094B1B6893F8A31041B903F5405292F857
:10365000310883F8A30020B182F831189FED030AE6
:103660007047B0EE080A7047DCAC03200AD7233C51
:1036700010B5564C23684FF40072A3F8B6211A799E
:1036800003F5405122F001021A71002283F8A320B1
:1036900081F8312893F88130022B4FF0010126D0B8
:1036A00002D9032B40F088801F2014F04BFE2368C2
:1036B00093F8B921013A032A28D8DFE802F0020979
:1036C0000E13434AC3F89C20424AC3F898201DE0D9
:1036D000414AC3F89C20414AF7E7414AC3F89C207D
:1036E000404AF2E7404AC3F89C20404AEDE74120B7
:1036F00014F028FE236893F8BA21142A36D00CD887
:103700000B2A27D00F2A49D0062A14D0236800227A
:1037100083F8A220A3F8A02010BD1E2A32D01F2AB1
:10372000F4D193F88210324AC3F89C20022941D088
:10373000304A314808E093F88210304AC3F89C20A0
:10374000022905D02E4A2F48032908BF0246BCE7AC
:103750002D4ABAE793F882102C4AC3F89C2002291C
:1037600002D02B4A2B48EFE72B4AAEE793F88210A2
:103770002A4AC3F89C20022902D0294A2948E3E7B3
:10378000294AA2E793F88210284AC3F89C2002290C
:1037900002D0274A2748D7E7274A96E793F88210AE
:1037A000264AC3F89C20022902D0254A2548CBE7A7
:1037B000254A8AE7254A88E7412014F0C3FD23689B
:1037C000234AC3F89C200E4A7FE700BFDCAC0320ED
:1037D0003BD0010044D001006ED1010076D1010040
:1037E000CAD20100D2D2010001D4010009D40100E3
:1037F0008AD5010013CE0100D0CF010062D50100AF
:103800008FBB010086BE010000BD01006AD501002A
:1038100038C00100F7C20100C0C1010072D501002B
:10382000B9C3010028C60100F2C401007AD5010025
:1038300071C7010053CA0100D1C8010082D501003F
:1038400020CC010073CD0100C5CC01006ECE01007B
:1038500092D501001149124BB1F9421011481B6871
:1038600000EB0110C3F88C000179407941EA002196
:10387000FF2209B283F87A20C3F8881000220221BF
:1038800083F8A210C3E92422C3F8842083F8A62079
:1038900083F8A52001213F2014F054BDACFF0100A6
:1038A000DCAC032010230200F8B5A44D2E68D6F836
:1038B0008830013B002BC6F8883000F3A880D6F88A
:1038C0008C209F4C1379517943EA01231BB20133B9
:1038D00006D0D37A917A41EA03210BB200296FD145
:1038E000D6F88430974F0133002057F8332086F8FC
:1038F000A600824208BF0346C6F8843007EBC30324
:10390000914E1B793C2202FB0363B3F9081009B105
:1039100014F0F8FE2A68D2F8843007EBC3033C2188
:103920001B7901FB0363B3F9063004EB0313C2F800
:103930008C300023C2F890302B68D3F890200C2AEA
:1039400040F0F3800122D3F8841083F8A5207D4A4B
:10395000D3F8946002EBC1023C2110797A4A01FB52
:103960000021002E00F0DE80B1F9141004EB0111EB
:1039700086F00107A142C3F88C10C3F894700CD1F3
:103980003C2101FB0022012E14BFB2F91420B2F930
:10399000162004EB0212C3F88C20D3F88410694A75
:1039A000D3F88C3002EBC1023C201179664A00FB4F
:1039B0000122B2F9062004EB021293421AD103E06D
:1039C00004F51A618A4223D12B680022D3F88410AF
:1039D00083F8A520C3F890205A4A02EBC1023C208C
:1039E0001179594A00FB0122B2F9062004EB0212B8
:1039F000C3F88C202A68D2F88C100B79497943EAF5
:103A000001231BB2591C08BF0F23C2F88830F8BD30
:103A100004EB0312C6F88C20D6F89020B3F5C07FD3
:103A200002F10102C6F8902026DAB3F5BC7F0CDC67
:103A3000B3F5807F67D013DCB92B69D0DA2B2BD09C
:103A40009A2B7FF479AF04215EE06FF4BC700344DD
:103A50009AB24923D340DE077FF56EAF102153E0C1
:103A6000B3F5A97F56D0B3F5AA7F55D0B3F5A87F9B
:103A70007FF462AF382147E040F24E2293424FD0AC
:103A80001FDCB3F5F37F49D00EDCB3F5D27F05DA46
:103A9000B3F5D07F7FF750AF022135E0B3F5E37F78
:103AA0007FF44AAF37212FE040F21A229342D5D05B
:103AB00040F237229342D1D040F2F9129342CDD056
:103AC0003AE740F2AD2293421BD00DDC40F269226E
:103AD000934203DCB3F51A7FDEDA2DE7B3F5227FDC
:103AE0007FF42AAF08210FE040F2B122934208D0C0
:103AF00040F2C622934213D040F2AF2293427FF4A9
:103B00001BAF0E2100E03621002014F0FBFD13E76F
:103B10000121F9E73521F7E76B21F5E73421F3E7D8
:103B20003321F1E7B1F9161020E793F8A510002929
:103B30003FF460AF182A3FF447AF2EE7DCAC032018
:103B40001023020088FB0100ACFF010010B5344CCB
:103B50002DED028B16F080FF2368B3F8A020013210
:103B6000A3F8A02093F8A230022B01D1FFF79CFE0E
:103B7000246894F8A230002B4ED1FFF761FDB4F910
:103B8000A030D4F8980008EE103AF0EE408A17F012
:103B90007DFC94F8A330DFED237ADFED236A07EE96
:103BA000100A002BB8EEC77A18BFF0EE667A47EE1F
:103BB000287AB8EEC88AB4EEE78AF1EE10FA05DC8E
:103BC00053B304F5405292F831282AB394F8812077
:103BD000022A13D00023A4F8A030012384F8A230D5
:103BE000FF2384F87A3094F8B931032B14D1BDEC5B
:103BF000028B1E20BDE8104014F0C2BB63B194F8E4
:103C0000BA311E2B05D1BDEC028BBDE81040FFF789
:103C100021BE082384F8B631BDEC028B10BD00BF75
:103C2000DCAC032000007A4300007A4410B503782E
:103C300053BB164B1B6893F8A60018BB0122D3F8A0
:103C4000841083F8A620124A124CC3F8900002EBAD
:103C5000C1023C21127983F8A50001FB02440E4900
:103C6000B4F9182001EB0211C3F88C100A794979D4
:103C700042EA0122B4F91C1012B2C3F8882009B13B
:103C800014F040FD012010BD0020FCE7DCAC032057
:103C900088FB0100ACFF010010230200044B1B68ED
:103CA00093F8A230022B01D1FFF7C0BF002070476C
:103CB000DCAC03202DE9F34139483A4E16F0B8F850
:103CC000042203460620CDE90002002211461046D8
:103CD00015F0C8FC3368D3F88420334B53F83250C6
:103CE000002D3ED0DFF8C4802F46002417F8010BCA
:103CF000002838D104EBD4746410C4F1780425B1E1
:103D00002A4F15F8010B002839D13068284BD0F81C
:103D10008C101A684C780B78126AB0F90E0543EAD9
:103D200004231BB202EBC3038A78C97842EA01225A
:103D3000C2F30E02596802EBC20201EB420431F9F0
:103D40001230227C02F0010204320192062200921B
:103D500003440022AA21A02015F084FC02B0BDE893
:103D6000F0812C46C6E717F082FD21383F289BBF23
:103D700058F82030B3F900300434E418B6E717F0EF
:103D800076FD21383F2801D90434BAE757F82020BE
:103D9000B2F900802046902113F002FB4444B0E7C2
:103DA00099D50100DCAC032088FB010020E503204D
:103DB000D0F603202DE9F043754D2B6893F8A2202F
:103DC000022A87B004D107B0BDE8F043FFF772BF05
:103DD000002A3ED1D3F89C00DFF8DC9115F07EFA82
:103DE0002B68D3F89850B3F9A0300A3B07EE903A0D
:103DF000FFF726FCF8EEE77A0A2687EE807A374648
:103E0000BDEEC77A17EE103A002BACBF05EB0308E6
:103E100005F10008454502D107B0BDE8F08315F86B
:103E2000010B0028F8D00A2802D10B360746F1E72B
:103E300017F01DFD21383F2801D9381DF6E759F844
:103E40002020B2F900403846314613F0A9FA38195B
:103E5000ECE793F8B921013A032ADDD8DFE802F054
:103E600002131A9593F88130032B0CBF49484A4836
:103E700015F0DEFF0424034601940622009200227E
:103E8000114610467EE0454815F0D2FF0422034655
:103E90000192F2E7B3F9A040E63C04EBD47464105D
:103EA000644204F5A076002E2ADC3D4815F0C0FFE0
:103EB00006224FF0040CCDE9002C002203461146E7
:103EC000104615F0CFFB2B68B3F9A04040F26942D1
:103ED0009442A1DD40F29B4294422EDC314815F021
:103EE000A7FF042606220346CDE90026442100222E
:103EF0006C2015F0B7FB2B68002283F8A4208BE719
:103F0000294815F095FF0427B6F5A07F4FF0000271
:103F10004FF00606CDE9006703461146D0DA60424D
:103F200015F0A0FB1E4815F083FF03461F48002232
:103F3000CDE900671146001BC3E740F2BE42944240
:103F400093F8A430D7BFA4F29C4406240522B4FB06
:103F5000F2F4A34206DA0121002014F0D3FB2B680F
:103F600083F8A4401249224603A8FCF771FD03A878
:103F700015F05EFF042203460620CDE9000244212D
:103F800000226C2015F06EFB46E70A487CE700BF74
:103F9000DCAC0320A2D50100A9D50100AFD50100FA
:103FA00080FB0100B8D501007AFB0100C0FEFFFFD5
:103FB000BDD50100C3D5010020E50320024B1B68DD
:103FC0000020C3F8A8007047DCAC0320024B1B683C
:103FD0000020C3F8A8007047DCAC03202DE9F041B5
:103FE000044602F07FFA424202F00F0200F00F0393
:103FF00058BF53425B42238004F5EF7503264FF60A
:10400000F1774FF0000802F06DFA90FBF6F303EB46
:10401000430334F9022BC31A013B13441BB2002B98
:1040200005DDA4F80080AC42EDD1BDE8F08113F1CC
:10403000100F14BF23802780F5E700002DE9F74F0C
:10404000334F0191054607F5E03801204FF4614EEA
:104050004FF0F00C013D02D203B0BDE8F08F019BA0
:1040600000219E1E6FF0EF0936F9022F002A07DAB1
:10407000013213B2338000200131F029F4D1E9E795
:10408000EF2AF9DC0F2AD4BF531C0923C2F1F00434
:104090001A44EF2AC8BF234698F80D260EFB0212D9
:1040A00002F204423A44C3F1EF0A0CFB0A2AE41A72
:1040B00002F56042103209FB04F40020844221D151
:1040C00098F80D06B6F90040C0F101020EFB02128D
:1040D0000EFB001000F2044002F2044214FB0C221A
:1040E00014FB0C043A443C440CFB03FA002012F885
:1040F00000B004F800B0F0308245F8D132881344A3
:104100001BB2B7E71AF800B002F800B0F038D5E7F4
:10411000B8220020024A1368591C116018787047B1
:104120001CE6032038B51E4D286890F97A3013B983
:10413000FF2380F87A30002380F8B73190F8D93126
:1041400033B190F8EC30012B04BF022380F8EC303F
:10415000144B90F8BA1100241C60134B80F82A41CC
:104160001C60124B80F82B411C60224690F9B8313C
:1041700090F8B9010AF050FB2D68214685F8B64148
:10418000102205F5DE7017F021FB85F8CD4185F88A
:10419000D54114F001FEBDE8384001F047B800BF3A
:1041A000DCAC0320BC000020CC000020C4000020B8
:1041B00038B5054D0C460A46296817F0D5FA2B6824
:1041C00023442B6038BD00BF1CE60320F8B55A4FCE
:1041D00008220021054617F0F9FA386890F8BFC1A7
:1041E00090F86522B0F8C4318CEA02026BB190F805
:1041F000CC310133DBB2062B80F8CC3140F28E801B
:10420000062380F8CC31134602E080F8CC3102233B
:1042100090F8C51121B1494951F8231049426980EC
:1042200090F8C41129B1454951F8233069880B44ED
:104230006B8090F8C24114B1414B53F8224090F882
:10424000C3311BB13E4B53F82230E41A90F8C761DA
:1042500016B13C4B53F8226090F8C6311BB1394B74
:1042600053F82230F61A90F8BE310BB10123EB71EE
:10427000BCF1000F03D0EB7943F00203EB7190F82F
:10428000C031002B4DD0E83009F068FD0A281FBF6F
:10429000EB7943EAC00343F00403EB716FF03103A1
:1042A0009E423046B8BF184632283A68A8BF32202E
:1042B000002C3ED0A342B8BF2346322BD2F8A01127
:1042C000A8BF32235BB259B91F4C2168013121606C
:1042D000C90605D143F00103022B01DD023B5BB2AD
:1042E00029780B442B706B7803446B70B5F902305E
:1042F00043B1D2F8A01129B143F00103022BC4BF8E
:10430000023B1BB26B8092F9CD1192F8CD3100299E
:10431000BEBFEB71002382F8CD31F8BD3FF473AF1F
:1043200075E790F8C131002BB8D0E83009F040FDB6
:10433000ACE72346D4E700BFDCAC032038FD010026
:104340004CFD010044FD0100D4AC032038B5204DE4
:104350002B6893F8B61193F8B7210446D1B993F8B6
:10436000DA1199B9032A15D193F8D52192070FD400
:104370001B79DB070CD4237823B1023B012B07D830
:1043800063682BB101F012FC012002E0032AEBD09C
:10439000002038BD022A0CD0237883B1012BF7D13D
:1043A00062680F2AF4DC2B681344002283F8BC21D6
:1043B000EEE72046FFF772FC0028EDD0E4E76268E4
:1043C0000F2AE1DC2B681344012283F8BC21DBE7D0
:1043D000DCAC03202DE9F341224B1C68042204F5D8
:1043E000957529460DEB020017F0BEF9D4F85481FB
:1043F000B4F95A71D4F85C61B022002104F1E800EC
:1044000017F0E4F9C4F85481022201A9284617F0F4
:10441000ABF940F20113A4F85231002384F8EC30D8
:10442000114BA4F85A711B68A4F810314FF0011316
:10443000C4F82C31C4F830310C4BC4F85C611B68F3
:10444000A4F842310A4B1A68A4F84A215A68A4F821
:104450004C219A68DB68A4F84E21A4F8503102B0D0
:10446000BDE8F081DCAC0320C46F0200C06F020025
:10447000A06F020008B513F0A9FF044B1B680022CF
:1044800083F8D321062283F8B62108BDDCAC0320D3
:1044900008B513F09BFF094B1B6893F88120022A93
:1044A0000AD193F8DC21003A18BF012283F8D32106
:1044B000062283F8B62108BD0122F7E7DCAC032011
:1044C00070B5594E346894F8D931002584F8B65146
:1044D0008BB10C22294604F58B7017F077F9062270
:1044E000294604F5917017F071F9C4F8E850C4F842
:1044F0006C51C4F864512379DB0701D5FEF758F9F4
:10450000346894F8812094F8BA31022A04D0092B37
:1045100004BF012184F8941194F8B90194F894111E
:1045200084F8B9105D1E411E022A94F8D36184F804
:10453000B81084F8BA5060D1002E58D00F2B52D04A
:104540001F2B6DD0022A1BBF0A2202FB0033374B00
:10455000374A0CBF53F8253052F82330B4F8AC1169
:10456000A4F8BC1023225343C4F8C4300023B4F889
:10457000B011A4F8C83094F8D931A4F8BE1084F86A
:10458000CC30B4F8B211B4F85A31D4F8F454A4F8D9
:10459000C010A4F8CE300021D4F85C31A4F8C210C9
:1045A000C4F8D030C4F8D450082204F5957104F151
:1045B000D80017F0D9F8D4F89C31232295FBF2F5F6
:1045C00002FB0533C4F89C31C4F8E430012384F8BD
:1045D000B731237923F00103237104F1B800BDE85A
:1045E000704016F0E9BA1E2184F8BB10AAE7A3F1C7
:1045F0001F01012914D80F21F6E70EB10821F3E7B6
:10460000092B0DD103299DD8DFE801F0020406082B
:104610000321E9E70521E7E70621E5E70221E3E7D2
:1046200084F8BB308EE700BFDCAC032018FC01002F
:1046300098FC0100114B1B6893F8D311082283F8F2
:10464000B62111B1012283F8942193F8810093F8E7
:10465000BA2102280CD11F2A0FD801239340084AFF
:104660001A401AB913F0802F07D031B1FFF700B804
:10467000082A04BF072283F8B6217047DCAC032068
:104680004008104038B50A4D2B6803F54052FF2111
:1046900082F83B1893F8BB200024013283F8B7411D
:1046A00083F8BA21FFF73EFD2B6883F8B64138BD89
:1046B000DCAC03202DE9F843224C234D234FDFF8D7
:1046C0009880DFF8989004F5E0334FF4614293F856
:1046D0000D3602FB0344FDF751FB1D4BA0F5805046
:1046E00004F2044440F0905018604FF440712046AA
:1046F000FFF75EFD04F540762368012B0AD01549CB
:10470000284617F015F86034A64205F10805F3D1E4
:10471000BDE8F8833B6893F88130022B06D1E3684B
:104720004A4608212846FCF7A7F9ECE74146284607
:1047300016F0FEFFA36830336B70E3683033EB7024
:10474000E1E700BFB82200202CE80320DCAC032006
:104750001CE6032089D6010096D601008FD6010001
:1047600070B50D4616460446FDF708FB013820409B
:10477000FDF73AFBFDF702FB01383246294620409F
:10478000BDE87040FDF700BBF8B5304D304E05F583
:10479000E0334FF4614293F80D3602FB0355FDF709
:1047A000EDFA2C4BA0F5805005F2044540F09050F6
:1047B00018604FF440712846FFF7FAFC326892F80F
:1047C000D23103EB430359010120685005EB431339
:1047D00092F8B811197192F8B911996092F8BA115A
:1047E000D960D2F89C11196192F865125961194685
:1047F00092F87F0041F8180F02F5977402F5A07047
:1048000034F9027F41F8047F8442F9D13C3302F548
:10481000A47234F9021F43F8041F9442B4F908103B
:104820001961F6D1FDF7AAFAA0F580504FF4407255
:10483000294640F09050FFF793FF3368064AC3F8CB
:104840006021BDE8F840FFF735BF00BFB822002067
:10485000DCAC03201CE603209BD60100024B1B6846
:1048600083F8D201FFF790BFDCAC03207FB5114B7A
:104870000093114B1B6893F87F20029293F86522F6
:10488000019293F86422039203F5405393F8392878
:1048900093F8383804920593FDF770FAA0F50050AC
:1048A0001822694640F09050FFF75AFF07B05DF8B4
:1048B00004FB00BFD1EADDBADCAC032070B52C4E9E
:1048C00006F5E033182293F80D564FF461435D432B
:1048D00005F20445AC190021204616F077FFFDF7DC
:1048E0004DFA244BA0F5005040F09050186018216C
:1048F0002046FFF75DFC72591F4B9A4236D1A068E3
:104900001E4D04282B6828BF042083F87F006268AE
:10491000003A18BF012283F86522E268003A18BF06
:10492000012283F86422626903F540530F2A28BFED
:104930000F2283F8382822690F2A28BF0F2283F814
:10494000392814F0A1FE002014F09CFE2B6803F51A
:10495000405393F8380813F073FC2B6803F5405369
:10496000BDE8704093F8390813F058BC70BD00BF23
:10497000B82200201CE60320D1EADDBADCAC03201B
:10498000054B1B6883F8D121022283F8CF0183F8FD
:10499000D01183F8B6217047DCAC0320024B1B68B2
:1049A0000022A3F8DA217047DCAC03202DE9F041A6
:1049B000274F3B68154693F8D52106460C4622B191
:1049C000002283F8D52113F00DFC3B68042E93F8E8
:1049D0008130B046A8BF4FF00408012CB8BF0124B5
:1049E000032B2BD1042CA8BF0424002D2DDD092D71
:1049F00002DD022B18BF092501F084FD3B6802226D
:104A000083F8EC20012283F8D7211A7983F8B94181
:104A1000032ED4BF00260126002122F0010283F8D4
:104A2000D46183F8D5111A7183F8BA5183F8B8812B
:104A3000BDE8F041C3F89C11FFF774BB1BB1032C18
:104A4000A8BF0324D1E70124CFE70125D4E700BFA5
:104A5000DCAC032070B5324D324E05F5E0334FF437
:104A6000614293F80D3602FB0355FDF787F92E4B93
:104A7000A0F5805005F2044540F0905018604FF4C6
:104A800040712846FFF794FB336893F8D24104EB5A
:104A90004404620105EB4414AA58012A3ED122794C
:104AA00083F8B821A26883F8B921E26883F8BA21B3
:104AB000626983F86522A06983F87F00C0B214F0B0
:104AC000E3FD336893F8BA2193F8B91193F9B8016B
:104AD000FFF76CFF32682369C2F89C3102F59771C9
:104AE00004F1180304F13C0053F8045F21F8025F5D
:104AF0008342F9D102F5A0714C3453F8040F21F828
:104B0000020FA34218690881F7D1084BB2F94A1184
:104B10001B689942C4BF012382F8283170BD00BFD1
:104B2000B8220020DCAC03201CE60320A06F0200AA
:104B3000044B1B68002283F8D20183F8DA21FFF7C7
:104B400089BF00BFDCAC032010B50A4CFFF726FF7D
:104B50002368072283F8D12193F8D01193F9CF016C
:104B6000FFF724FF2368002283F8B621BDE8104038
:104B700014F012B9DCAC03202DE9F04F534B544F25
:104B80001868544E85B001A915F050F8002401A80A
:104B90008DF80C4015F04CF93568386015F0BAF90D
:104BA000C5F8AC00386835684B4F15F071F9D5F889
:104BB000A431D5F8ACA0C5F8A831C5F8B000C7F845
:104BC00000A0FFF7A7FAC72885F8BB01C5F8A041E8
:104BD0004FF001034CD86E284FFA80F888BFC5F813
:104BE000A0310AF10103B8F1630F0AF1020B0AF1D7
:104BF00003043B6033DDFFF78DFAC7F800B04FFACE
:104C000080F8FFF787FA3C608146FFF783FA0AF1E4
:104C1000090483463C60FFF77DFA95F8B63185F8C4
:104C2000D901032B04F1040404D05A4649464046F6
:104C3000FFF7BCFE33680022C3F85421C5F8B44026
:104C400083F8B62183F8D721012283F8DA2100F016
:104C5000C9FB3368C3F8980105B0BDE8F08FFFF7D2
:104C600059FAC7F800B08146FFF754FA8346D1E7F6
:104C7000CB380AF107040B280DD8DFE800F0060C4A
:104C80000C0C0C0C0C0A0A0A0A239AF802304D2B61
:104C900001D10AF108043C60FFF73CFA631C3B6059
:104CA0004FFA80F8FFF736FAA31C3B608146FFF706
:104CB00031FA95F8BB31C82B834614BF453404F252
:104CC0000514A7E7C5F8A031E3E700BFD8AC03207F
:104CD000B8000020DCAC03201CE6032010B50C4C0F
:104CE000236893F8D8310BB100F07CFB236893F86C
:104CF000DA0158B1074B1A6801321CBF4FF0FF327E
:104D00001A60FFF74BFEFEF7C7F9012010BD00BF88
:104D1000DCAC0320B8000020F8B52E4B2E4E1C68EA
:104D2000D4F8B43033600746FFF7F4F9802803D194
:104D3000BDE8F840FFF7D2BF94F8DA21D4F8B430D8
:104D40006AB1D4F8A021D4F8B000002AD4F8AC207D
:104D50000CBF04210521194402449142E8D85A1C91
:104D6000C4F8B4203360FFF7D5F93870D4F8B43004
:104D700033605A1CC4F8B420FFF7CCF97870D4F82B
:104D8000A021D4F8B43092B95A1CC4F8B4203360CE
:104D9000FFF7C0F903021BB27B80D4F8B430336054
:104DA0005A1CC4F8B420FFF7B5F9F871F8BD5A1CC5
:104DB000C4F8B4203360FFF7ADF9D4F8B4303360F1
:104DC0005A1CC4F8B4200546FFF7A4F905EB0023EC
:104DD000E1E700BFDCAC03201CE6032038B5644CDF
:104DE00007F01CF9236893F8D92132B193F8EC202D
:104DF000022A04BF012283F8B62107F011F9022527
:104E0000216891F8B63113B3013B072BFDD8DFE8D9
:104E100003F004090C0F1215181B81F8EC50FFF772
:104E200081F9EDE7FFF790FEEAE7FFF713FEE7E70A
:104E3000FFF7AAFCE4E7FFF79FFEE1E7FFF740FB7F
:104E4000DEE7FEF715FCDBE7FFF71CFCD8E791F87F
:104E5000D531980705D491F8DA510DBB91F86D3230
:104E6000F3B1D1F8A8310133C1F8A831226892F822
:104E7000CE3192F8B7219A4208D0012B01D115F01A
:104E8000F5FA236893F8B72183F8CE21226892F8C7
:104E9000B73192F8D52192074DD5002B51D038BDAE
:104EA00091F8D9314BB101F1EE0308225C3118467B
:104EB00016F05AFC0DB1FFF72FFF236893F8D921A4
:104EC000002AD3D093F9F51093F8F5200029CDDA14
:104ED00002F00301022915D0032926D0012919D196
:104EE00093F8D52182F00101012A83F8D51106D06B
:104EF00013F05CF92368002283F8F520B6E713F07D
:104F000071F9F7E7C2F3820283F8D221042283F811
:104F1000B621EFE7C2F3820283F8D221032283F89D
:104F2000B621002283F8D621E4E793F8DA21002A9B
:104F3000E0D10122EBE7032BB1D8DFE803F0020C4C
:104F400010140CF06BFE13F0D1FCFDF7B7FDBDE8BB
:104F5000384000F0FBB9BDE8384015F0A3BDBDE80E
:104F60003840FEF7F3BDBDE83840FEF79DB800BFFE
:104F7000DCAC032008B5184A184B136000214FF42D
:104F80006152184616F022FC43F233320346826423
:104F90004FF6FF71012280F85220A0F850104FF414
:104FA0008030586598654FF60370A3F87A0083F84F
:104FB0006422A3F81C25042003F2A452C3F8A825F8
:104FC00083F8810003F5405340F60F72A3F83828A8
:104FD000A3F8C01708BD00BFDCAC0320E0AC032081
:104FE0004360BDF9003003810023438103734FF414
:104FF000803301804280C3627047B0F90A301F2BB2
:1050000013D00A29B0F92C201ABF01331BB2002398
:105010004381531C1BB20244838503441173002255
:105020001A730423C38501207047002070472DE9BF
:10503000F14F06466FF00A09B0F902A036F90B4BA2
:1050400005460F46A9EB00094FF05008B5F92C2092
:1050500009EB06039A422EDD16F8010F16F007FC45
:105060000A2803D10AF1080A0024EFE7092807D12A
:1050700094FBF8F308FB1343E31A03F15004E5E74C
:10508000202815D0B5F90830984211DB5F280FDCD5
:10509000C01A6B6853F82020B2F900B0A344BBF1EA
:1050A000F00F08DC2046514612F07AF95C46CDE755
:1050B0000434EF2CCADDA7B1B5F908306A68C3F132
:1050C0005F0352F82330B3F900202244B2F5A07FE9
:1050D00007DC00225146204601B0BDE8F04F14F035
:1050E00047B901B0BDE8F08FB0F92E300BB1013BEC
:1050F000C385704710B5049C4463012480F8384090
:105100000024A342038644860BDD029B4360BDF965
:105110000C3003814FF4803301804280448104735A
:10512000C36210BD438E70B501330446B0F9300040
:105130001BB2834208BF002316463022638602FB5F
:105140000343002290429A855A811A73D5BF0122E7
:105150000423DA85E38519B14D1E15F8011F21B925
:10516000013E16F8011F49B970BDB4F9320000EBD9
:10517000400004EB0010FFF740FFEEE7B4F9320007
:1051800000EB400004EB0010FFF737FFE9E770B5D4
:10519000436B1B78044683B970BDB4F93200401BE1
:1051A00048BFC018002106FB0040FFF740FF013553
:1051B000B4F93030AB42F0DCEEE700253026F7E7FB
:1051C00008B502460021B2F930308B4204DC536B43
:1051D0001B7882F8383008BD92F8383023B1536B11
:1051E0001B780BB90423C385FFF77EFF01313030F4
:1051F000E9E700007FB50B4D0B4E212422463146D6
:1052000001A8FBF725FC01A814F012FE01220021E1
:1052100014F08AFC0134602C45F8040BEED104B084
:1052200070BD00BF20E50320A7D601007FB52D4D3E
:10523000286890F84F2200230AB180F84F3280F896
:105240004D3280F84E32284C009400F24D2300225B
:1052500021261146029300F5047001230196FFF701
:1052600049FF236828685A880096C2F1CF02234676
:1052700012B2002100F5F070FFF7B2FE2B6893F830
:10528000B72192B993F8811093F8BA21012901D975
:10529000032915D193F8B931013B03EBC303134440
:1052A000124A013B52F8234000E0114C013C14F833
:1052B000011F286889B9012380F84F3204B070BDFE
:1052C00093F88210022902F1FF3301D1094AE9E77C
:1052D00003290CBF084A094AE4E700F5F070FFF71C
:1052E0008CFEE4E7DCAC032020E503201CFF01007A
:1052F00014BB01009CFD01001CFE01009CFE01008E
:1053000010B5064C206800F50470FFF759FF2068BF
:10531000BDE8104000F5F070FFF7E6BEDCAC0320FE
:1053200010B5094C20680379DB0704D5002100F58E
:10533000F070FFF77CFEFFF7E3FF2068BDE8104048
:1053400000F50470FFF723BFDCAC032038B5124D25
:105350002C6894F84C3233B1013BDBB284F84C3208
:105360000BB984F84D3294F8643213B994F84E3284
:105370008BB1D4F8602172B1002104F50470FFF7FD
:10538000D1FE2B6800224FF4C671C4F86021A3F847
:105390004C1283F84E2238BDDCAC0320002070474D
:1053A000072970B5044608460BD8074D06234B4322
:1053B000E9184FF6FF76EE5200234B800C714A71CC
:1053C00070BD4FF0FF30FBE78CA40320704770479F
:1053D0007047704770477047014BD3F840057047DE
:1053E00000A00140084A094B1268D3F84035D2F8B2
:1053F000540210B9C2F854327047181A46F69B731B
:10540000B0FBF3F0704700BFDCAC032000A001400C
:10541000044B1B7813B1044B1B780BB9FFF7D6BFB5
:10542000704700BF78FB010079FB010007B500233E
:105430000DF107008DF80730FCF7BAFE9DF8070064
:1054400003B05DF804FB0000F0B585B0FFF7EEFF98
:1054500010F0020F00F0010400F0080500F0040154
:1054600000F0400200F020034AD0E4020DB144F401
:10547000806409B144F480540AB144F020040BB1B3
:1054800044F0040410F06D0F01D144F0020406064C
:10549000234F48BF44F04004C50600F0440048BF15
:1054A00044F080043E88442808BF44F4005400259A
:1054B00066408DF8005046FA05F3D80707D544FA40
:1054C00005F3D90703D568460195FDF7BDFD013504
:1054D000102DF0D101238DF80030002546FA05F398
:1054E000DA0707D544FA05F3DB0703D468460195CC
:1054F000FDF7AAFD0135102DF0D13C8005B0F0BDBF
:1055000064020DB144F4807409B144F008040AB196
:1055100044F01004002BBAD044F00404B7E700BFF5
:1055200020E603200A4B03F5E0324FF4614192F884
:105530000D2601FB0233074A126802F5405203F2BE
:105540000443C2F8DC37044A01201360704700BFEF
:10555000B8220020DCAC032074EB032070B5284B8C
:1055600028481B6893F85C1293F87F20C3F8580210
:10557000254B1B685B6A4FF4407404FB01334AB34C
:1055800022490646002401EB02221978555C59781D
:10559000515C8908ED08490141EAC5219D78555DB6
:1055A000013441EAD50149BAB4F5807F26F8021BDF
:1055B00003F10303E9D1164C206004F5E03494F8BC
:1055C0000D06FCF7D3F894F80D36C3F1010384F807
:1055D0000D3670BD054659781C788908E4084901E4
:1055E00041EAC4219C78013241EAD40149BAB2F5BA
:1055F000807F25F8021B03F10303ECD1DBE700BF3A
:10560000DCAC032022E60320D0F60320A8D9030057
:10561000B8220020024B1B6883F85C02704700BF71
:10562000DCAC03204FF00043C36003606FF0004325
:1056300083604360704783688B4205DD8160436807
:10564000934206DD42607047C3688B42B8BFC160B9
:10565000F5E703689342B8BF02607047094B1B68C7
:10566000D3F8542182F00202C3F85421920749BFB3
:10567000054A064A1268A3F8102148BF044AC3F835
:1056800060217047DCAC0320BC6F02004BE40100DA
:1056900034E4010010B5264B1B6893F8282162B949
:1056A00003F5A47203F5A87032F8021F4900824284
:1056B0001180F9D1012283F828211E4A1268A3F82B
:1056C00012211D4A1268A3F8142103F598710022D3
:1056D0000120541F012C04D893F881403CB90132B9
:1056E000F7E7082A03D193F88140022C04D121F86E
:1056F00012000132092AECD103F5A1710022022A1D
:1057000002D193F8810008B1088908800132042A87
:1057100001F10201F3D140F20112A3F822214FF06E
:105720000132C3F82421054AC3F8602110BD00BF2F
:10573000DCAC0320B86F0200B46F020063E4010028
:1057400010B5224B1B6893F8282162B903F5A472A7
:1057500003F5A87032F8021F490082421180F9D186
:10576000012283F828211A4A1268A3F81221194A43
:105770001268A3F8142103F5987100220120541F28
:10578000012C04D893F881403CB90132F7E7082A8C
:1057900003D193F88140022C04D121F81200013288
:1057A000092AECD103F5A1710022022A02D193F853
:1057B000810008B1088908800132042A01F1020140
:1057C000F3D1054AC3F8602110BD00BFDCAC032053
:1057D000B86F0200B46F020079E40100084B094978
:1057E0001A68D2F8543183F0010313F0010FC2F8A4
:1057F0005431054B18BF0B46C2F86031704700BFEB
:10580000DCAC03208EE40100A2E401000E4B1B6817
:10581000D3F8542182F00802C3F85421120711D59D
:105820000A4A1268A3F810210122A3F83821B3F81C
:105830005021A3F848210422A3F82E21044AC3F8DA
:1058400060217047034AFAE7DCAC0320BC6F02001A
:10585000B7E40100C8E40100084B09491B6893F84C
:105860008020002A0CBF0122002283F88020054AF4
:1058700008BF0A46C3F86021704700BFDCAC0320B4
:10588000DAE40100E9E40100FEF7F4BD024B186818
:105890000521E83004F0AAB8DCAC0320024B1868FC
:1058A0000221E83004F0A2B8DCAC0320024B1868F7
:1058B0000121E83004F09AB8DCAC0320024B1868F0
:1058C0000021E83004F092B8DCAC0320024B1868E9
:1058D0000421E83004F08AB8DCAC032010B5084C91
:1058E00020680123A0F83E310723A0F82E310021C3
:1058F000E83004F07BF82368024AC3F8602110BD49
:10590000DCAC0320F9E4010010B50378EBB9104AD0
:1059100011684268D1F8604202F00F0242EA0412B4
:10592000C1F860220B490846CC68A24208D1142273
:1059300002FB030003690BB9012010BD9847FBE788
:1059400001330D2B01F11401EED10020F5E700BF6A
:10595000DCAC03208068020007B5084814F068FA40
:10596000042203460620CDE90002022100225E2027
:1059700013F078FE03B05DF804FB00BF93E501006F
:1059800007B5084814F054FA042203460620CDE96E
:10599000000226210022362013F064FE03B05DF8D9
:1059A00004FB00BF9AE5010037B50D4814F040FA3A
:1059B00004250624034600220E2101950094602050
:1059C00013F050FE074814F033FACDE900450346C2
:1059D00000222621362013F045FE03B030BD00BF63
:1059E000A3E50100AAE501000A4B0B491A680B4820
:1059F00092F86432C3F10103DBB2002B08BF014609
:105A000082F864320123C2F8601182F84E32FEF748
:105A10002DBF00BFDCAC0320BFE50100B2E50100F3
:105A2000084B09491A68094892F86532C3F1010325
:105A3000DBB2002B08BF014682F86532C2F8601164
:105A4000FEF714BFDCAC0320DBE50100CBE5010071
:105A500010B5114C60B1012815D0FEF707FF23687F
:105A600003F54053BDE8104093F8380812F0E8BB46
:105A7000236803F5405393F83828002AEDD0013A03
:105A800083F83828E9E7236803F5405393F838286A
:105A90000E2AE2D80132F3E7DCAC032010B5114C3A
:105AA00060B1012815D0FEF7E1FE236803F54053ED
:105AB000BDE8104093F8390812F0B0BB236803F535
:105AC000405393F83928002AEDD0013A83F8392859
:105AD000E9E7236803F5405393F839280E2AE2D802
